{
  "abi": [
    {
      "anonymous": false,
      "inputs": [
        {
          "indexed": true,
          "internalType": "address",
          "name": "owner",
          "type": "address"
        },
        {
          "indexed": true,
          "internalType": "address",
          "name": "operator",
          "type": "address"
        },
        {
          "indexed": false,
          "internalType": "bool",
          "name": "approved",
          "type": "bool"
        }
      ],
      "name": "ApprovalForAll",
      "type": "event"
    },
    {
      "anonymous": false,
      "inputs": [
        {
          "indexed": true,
          "internalType": "address",
          "name": "operator",
          "type": "address"
        },
        {
          "indexed": true,
          "internalType": "address",
          "name": "from",
          "type": "address"
        },
        {
          "indexed": true,
          "internalType": "address",
          "name": "to",
          "type": "address"
        },
        {
          "indexed": false,
          "internalType": "uint256[]",
          "name": "ids",
          "type": "uint256[]"
        },
        {
          "indexed": false,
          "internalType": "uint256[]",
          "name": "amounts",
          "type": "uint256[]"
        }
      ],
      "name": "TransferBatch",
      "type": "event"
    },
    {
      "anonymous": false,
      "inputs": [
        {
          "indexed": true,
          "internalType": "address",
          "name": "operator",
          "type": "address"
        },
        {
          "indexed": true,
          "internalType": "address",
          "name": "from",
          "type": "address"
        },
        {
          "indexed": true,
          "internalType": "address",
          "name": "to",
          "type": "address"
        },
        {
          "indexed": false,
          "internalType": "uint256",
          "name": "id",
          "type": "uint256"
        },
        {
          "indexed": false,
          "internalType": "uint256",
          "name": "amount",
          "type": "uint256"
        }
      ],
      "name": "TransferSingle",
      "type": "event"
    },
    {
      "anonymous": false,
      "inputs": [
        {
          "indexed": false,
          "internalType": "string",
          "name": "value",
          "type": "string"
        },
        {
          "indexed": true,
          "internalType": "uint256",
          "name": "id",
          "type": "uint256"
        }
      ],
      "name": "URI",
      "type": "event"
    },
    {
      "inputs": [
        {
          "internalType": "address",
          "name": "",
          "type": "address"
        },
        {
          "internalType": "uint256",
          "name": "",
          "type": "uint256"
        }
      ],
      "name": "balanceOf",
      "outputs": [
        {
          "internalType": "uint256",
          "name": "",
          "type": "uint256"
        }
      ],
      "stateMutability": "view",
      "type": "function"
    },
    {
      "inputs": [
        {
          "internalType": "address[]",
          "name": "owners",
          "type": "address[]"
        },
        {
          "internalType": "uint256[]",
          "name": "ids",
          "type": "uint256[]"
        }
      ],
      "name": "balanceOfBatch",
      "outputs": [
        {
          "internalType": "uint256[]",
          "name": "balances",
          "type": "uint256[]"
        }
      ],
      "stateMutability": "view",
      "type": "function"
    },
    {
      "inputs": [
        {
          "internalType": "address",
          "name": "from",
          "type": "address"
        },
        {
          "internalType": "uint256[]",
          "name": "ids",
          "type": "uint256[]"
        },
        {
          "internalType": "uint256[]",
          "name": "amounts",
          "type": "uint256[]"
        }
      ],
      "name": "batchBurn",
      "outputs": [],
      "stateMutability": "nonpayable",
      "type": "function"
    },
    {
      "inputs": [
        {
          "internalType": "address",
          "name": "to",
          "type": "address"
        },
        {
          "internalType": "uint256[]",
          "name": "ids",
          "type": "uint256[]"
        },
        {
          "internalType": "uint256[]",
          "name": "amounts",
          "type": "uint256[]"
        },
        {
          "internalType": "bytes",
          "name": "data",
          "type": "bytes"
        }
      ],
      "name": "batchMint",
      "outputs": [],
      "stateMutability": "nonpayable",
      "type": "function"
    },
    {
      "inputs": [
        {
          "internalType": "address",
          "name": "from",
          "type": "address"
        },
        {
          "internalType": "uint256",
          "name": "id",
          "type": "uint256"
        },
        {
          "internalType": "uint256",
          "name": "amount",
          "type": "uint256"
        }
      ],
      "name": "burn",
      "outputs": [],
      "stateMutability": "nonpayable",
      "type": "function"
    },
    {
      "inputs": [
        {
          "internalType": "address",
          "name": "",
          "type": "address"
        },
        {
          "internalType": "address",
          "name": "",
          "type": "address"
        }
      ],
      "name": "isApprovedForAll",
      "outputs": [
        {
          "internalType": "bool",
          "name": "",
          "type": "bool"
        }
      ],
      "stateMutability": "view",
      "type": "function"
    },
    {
      "inputs": [
        {
          "internalType": "address",
          "name": "to",
          "type": "address"
        },
        {
          "internalType": "uint256",
          "name": "id",
          "type": "uint256"
        },
        {
          "internalType": "uint256",
          "name": "amount",
          "type": "uint256"
        },
        {
          "internalType": "bytes",
          "name": "data",
          "type": "bytes"
        }
      ],
      "name": "mint",
      "outputs": [],
      "stateMutability": "nonpayable",
      "type": "function"
    },
    {
      "inputs": [
        {
          "internalType": "address",
          "name": "from",
          "type": "address"
        },
        {
          "internalType": "address",
          "name": "to",
          "type": "address"
        },
        {
          "internalType": "uint256[]",
          "name": "ids",
          "type": "uint256[]"
        },
        {
          "internalType": "uint256[]",
          "name": "amounts",
          "type": "uint256[]"
        },
        {
          "internalType": "bytes",
          "name": "data",
          "type": "bytes"
        }
      ],
      "name": "safeBatchTransferFrom",
      "outputs": [],
      "stateMutability": "nonpayable",
      "type": "function"
    },
    {
      "inputs": [
        {
          "internalType": "address",
          "name": "from",
          "type": "address"
        },
        {
          "internalType": "address",
          "name": "to",
          "type": "address"
        },
        {
          "internalType": "uint256",
          "name": "id",
          "type": "uint256"
        },
        {
          "internalType": "uint256",
          "name": "amount",
          "type": "uint256"
        },
        {
          "internalType": "bytes",
          "name": "data",
          "type": "bytes"
        }
      ],
      "name": "safeTransferFrom",
      "outputs": [],
      "stateMutability": "nonpayable",
      "type": "function"
    },
    {
      "inputs": [
        {
          "internalType": "address",
          "name": "operator",
          "type": "address"
        },
        {
          "internalType": "bool",
          "name": "approved",
          "type": "bool"
        }
      ],
      "name": "setApprovalForAll",
      "outputs": [],
      "stateMutability": "nonpayable",
      "type": "function"
    },
    {
      "inputs": [
        {
          "internalType": "bytes4",
          "name": "interfaceId",
          "type": "bytes4"
        }
      ],
      "name": "supportsInterface",
      "outputs": [
        {
          "internalType": "bool",
          "name": "",
          "type": "bool"
        }
      ],
      "stateMutability": "view",
      "type": "function"
    },
    {
      "inputs": [
        {
          "internalType": "uint256",
          "name": "",
          "type": "uint256"
        }
      ],
      "name": "totalSupply",
      "outputs": [
        {
          "internalType": "uint256",
          "name": "",
          "type": "uint256"
        }
      ],
      "stateMutability": "view",
      "type": "function"
    },
    {
      "inputs": [
        {
          "internalType": "uint256",
          "name": "",
          "type": "uint256"
        }
      ],
      "name": "uri",
      "outputs": [
        {
          "internalType": "string",
          "name": "",
          "type": "string"
        }
      ],
      "stateMutability": "pure",
      "type": "function"
    }
  ],
  "bytecode": {
    "object": "0x608060405234801561001057600080fd5b50611f48806100206000396000f3fe608060405234801561001057600080fd5b50600436106100de5760003560e01c8063a22cb4651161008c578063e985e9c511610066578063e985e9c5146101f0578063f242432a1461021e578063f5298aca14610231578063f6eb127a1461024457600080fd5b8063a22cb465146101aa578063b48ab8b6146101bd578063bd85b039146101d057600080fd5b80632eb2c2d6116100bd5780632eb2c2d6146101625780634e1273f414610177578063731133e91461019757600080fd5b8062fdd58e146100e357806301ffc9a71461011e5780630e89341c14610141575b600080fd5b61010b6100f1366004611515565b600060208181529281526040808220909352908152205481565b6040519081526020015b60405180910390f35b61013161012c366004611570565b610257565b6040519015158152602001610115565b61015561014f366004611594565b50606090565b6040516101159190611611565b6101756101703660046116b2565b61033c565b005b61018a61018536600461176d565b610732565b6040516101159190611814565b6101756101a5366004611933565b6108a9565b6101756101b8366004611994565b6108de565b6101756101cb366004611a50565b610975565b61010b6101de366004611594565b60026020526000908152604090205481565b6101316101fe366004611add565b600160209081526000928352604080842090915290825290205460ff1681565b61017561022c366004611b10565b610a01565b61017561023f366004611b88565b610d07565b610175610252366004611bbb565b610d2c565b60007f01ffc9a7000000000000000000000000000000000000000000000000000000007fffffffff00000000000000000000000000000000000000000000000000000000831614806102ea57507fd9b67a26000000000000000000000000000000000000000000000000000000007fffffffff000000000000000000000000000000000000000000000000000000008316145b8061033657507f0e89341c000000000000000000000000000000000000000000000000000000007fffffffff000000000000000000000000000000000000000000000000000000008316145b92915050565b8483146103aa576040517f08c379a000000000000000000000000000000000000000000000000000000000815260206004820152600f60248201527f4c454e4754485f4d49534d41544348000000000000000000000000000000000060448201526064015b60405180910390fd5b3373ffffffffffffffffffffffffffffffffffffffff891614806103fe575073ffffffffffffffffffffffffffffffffffffffff8816600090815260016020908152604080832033845290915290205460ff165b610464576040517f08c379a000000000000000000000000000000000000000000000000000000000815260206004820152600e60248201527f4e4f545f415554484f52495a454400000000000000000000000000000000000060448201526064016103a1565b60008060005b878110156105395788888281811061048457610484611c2f565b90506020020135925086868281811061049f5761049f611c2f565b73ffffffffffffffffffffffffffffffffffffffff8e16600090815260208181526040808320898452825282208054939091029490940135955085939250906104e9908490611c8d565b909155505073ffffffffffffffffffffffffffffffffffffffff8a166000908152602081815260408083208684529091528120805484929061052c908490611ca0565b909155505060010161046a565b508873ffffffffffffffffffffffffffffffffffffffff168a73ffffffffffffffffffffffffffffffffffffffff163373ffffffffffffffffffffffffffffffffffffffff167f4a39dc06d4c0dbc64b70af90fd698a233a518aa5d07e595d983b8c0526c8f7fb8b8b8b8b6040516105b49493929190611cfe565b60405180910390a473ffffffffffffffffffffffffffffffffffffffff89163b156106a6576040517fbc197c81000000000000000000000000000000000000000000000000000000008082529073ffffffffffffffffffffffffffffffffffffffff8b169063bc197c819061063b9033908f908e908e908e908e908e908e90600401611d6e565b6020604051808303816000875af115801561065a573d6000803e3d6000fd5b505050506040513d601f19601f8201168201806040525081019061067e9190611ddf565b7fffffffff0000000000000000000000000000000000000000000000000000000016146106c0565b73ffffffffffffffffffffffffffffffffffffffff891615155b610726576040517f08c379a000000000000000000000000000000000000000000000000000000000815260206004820152601060248201527f554e534146455f524543495049454e540000000000000000000000000000000060448201526064016103a1565b50505050505050505050565b606083821461079d576040517f08c379a000000000000000000000000000000000000000000000000000000000815260206004820152600f60248201527f4c454e4754485f4d49534d41544348000000000000000000000000000000000060448201526064016103a1565b8367ffffffffffffffff8111156107b6576107b6611827565b6040519080825280602002602001820160405280156107df578160200160208202803683370190505b50905060005b848110156108a05760008087878481811061080257610802611c2f565b90506020020160208101906108179190611dfc565b73ffffffffffffffffffffffffffffffffffffffff1673ffffffffffffffffffffffffffffffffffffffff168152602001908152602001600020600085858481811061086557610865611c2f565b9050602002013581526020019081526020016000205482828151811061088d5761088d611c2f565b60209081029190910101526001016107e5565b50949350505050565b6108b584848484610dae565b600083815260026020526040812080548492906108d3908490611ca0565b909155505050505050565b33600081815260016020908152604080832073ffffffffffffffffffffffffffffffffffffffff87168085529083529281902080547fffffffffffffffffffffffffffffffffffffffffffffffffffffffffffffff001686151590811790915590519081529192917f17307eab39ab6107e8899845ad3d59bd9653f200f220920489ca2b5937696c31910160405180910390a35050565b61098184848484610fb2565b60008060005b85518110156109f8578581815181106109a2576109a2611c2f565b602002602001015192508481815181106109be576109be611c2f565b60200260200101519150816002600085815260200190815260200160002060008282546109eb9190611ca0565b9091555050600101610987565b50505050505050565b3373ffffffffffffffffffffffffffffffffffffffff87161480610a55575073ffffffffffffffffffffffffffffffffffffffff8616600090815260016020908152604080832033845290915290205460ff165b610abb576040517f08c379a000000000000000000000000000000000000000000000000000000000815260206004820152600e60248201527f4e4f545f415554484f52495a454400000000000000000000000000000000000060448201526064016103a1565b73ffffffffffffffffffffffffffffffffffffffff861660009081526020818152604080832087845290915281208054859290610af9908490611c8d565b909155505073ffffffffffffffffffffffffffffffffffffffff851660009081526020818152604080832087845290915281208054859290610b3c908490611ca0565b9091555050604080518581526020810185905273ffffffffffffffffffffffffffffffffffffffff808816929089169133917fc3d58168c5ae7397731d063d5bbf3d657854427343f4c083240f7aacaa2d0f62910160405180910390a473ffffffffffffffffffffffffffffffffffffffff85163b15610c7f576040517ff23a6e61000000000000000000000000000000000000000000000000000000008082529073ffffffffffffffffffffffffffffffffffffffff87169063f23a6e6190610c149033908b908a908a908a908a90600401611e17565b6020604051808303816000875af1158015610c33573d6000803e3d6000fd5b505050506040513d601f19601f82011682018060405250810190610c579190611ddf565b7fffffffff000000000000000000000000000000000000000000000000000000001614610c99565b73ffffffffffffffffffffffffffffffffffffffff851615155b610cff576040517f08c379a000000000000000000000000000000000000000000000000000000000815260206004820152601060248201527f554e534146455f524543495049454e540000000000000000000000000000000060448201526064016103a1565b505050505050565b610d128383836112b3565b600091825260026020526040909120805491909103905550565b610d37838383611351565b60008060005b8451811015610cff57848181518110610d5857610d58611c2f565b60200260200101519250838181518110610d7457610d74611c2f565b6020026020010151915081600260008581526020019081526020016000206000828254610da19190611c8d565b9091555050600101610d3d565b73ffffffffffffffffffffffffffffffffffffffff841660009081526020818152604080832086845290915281208054849290610dec908490611ca0565b9091555050604080518481526020810184905273ffffffffffffffffffffffffffffffffffffffff86169160009133917fc3d58168c5ae7397731d063d5bbf3d657854427343f4c083240f7aacaa2d0f62910160405180910390a473ffffffffffffffffffffffffffffffffffffffff84163b15610f2c576040517ff23a6e61000000000000000000000000000000000000000000000000000000008082529073ffffffffffffffffffffffffffffffffffffffff86169063f23a6e6190610ec1903390600090899089908990600401611e69565b6020604051808303816000875af1158015610ee0573d6000803e3d6000fd5b505050506040513d601f19601f82011682018060405250810190610f049190611ddf565b7fffffffff000000000000000000000000000000000000000000000000000000001614610f46565b73ffffffffffffffffffffffffffffffffffffffff841615155b610fac576040517f08c379a000000000000000000000000000000000000000000000000000000000815260206004820152601060248201527f554e534146455f524543495049454e540000000000000000000000000000000060448201526064016103a1565b50505050565b82518251811461101e576040517f08c379a000000000000000000000000000000000000000000000000000000000815260206004820152600f60248201527f4c454e4754485f4d49534d41544348000000000000000000000000000000000060448201526064016103a1565b60005b818110156110c75783818151811061103b5761103b611c2f565b60200260200101516000808873ffffffffffffffffffffffffffffffffffffffff1673ffffffffffffffffffffffffffffffffffffffff168152602001908152602001600020600087848151811061109557611095611c2f565b6020026020010151815260200190815260200160002060008282546110ba9190611ca0565b9091555050600101611021565b508473ffffffffffffffffffffffffffffffffffffffff16600073ffffffffffffffffffffffffffffffffffffffff163373ffffffffffffffffffffffffffffffffffffffff167f4a39dc06d4c0dbc64b70af90fd698a233a518aa5d07e595d983b8c0526c8f7fb878760405161113f929190611eae565b60405180910390a473ffffffffffffffffffffffffffffffffffffffff85163b1561122c576040517fbc197c81000000000000000000000000000000000000000000000000000000008082529073ffffffffffffffffffffffffffffffffffffffff87169063bc197c81906111c19033906000908a908a908a90600401611edc565b6020604051808303816000875af11580156111e0573d6000803e3d6000fd5b505050506040513d601f19601f820116820180604052508101906112049190611ddf565b7fffffffff000000000000000000000000000000000000000000000000000000001614611246565b73ffffffffffffffffffffffffffffffffffffffff851615155b6112ac576040517f08c379a000000000000000000000000000000000000000000000000000000000815260206004820152601060248201527f554e534146455f524543495049454e540000000000000000000000000000000060448201526064016103a1565b5050505050565b73ffffffffffffffffffffffffffffffffffffffff8316600090815260208181526040808320858452909152812080548392906112f1908490611c8d565b9091555050604080518381526020810183905260009173ffffffffffffffffffffffffffffffffffffffff86169133917fc3d58168c5ae7397731d063d5bbf3d657854427343f4c083240f7aacaa2d0f62910160405180910390a4505050565b8151815181146113bd576040517f08c379a000000000000000000000000000000000000000000000000000000000815260206004820152600f60248201527f4c454e4754485f4d49534d41544348000000000000000000000000000000000060448201526064016103a1565b60005b81811015611466578281815181106113da576113da611c2f565b60200260200101516000808773ffffffffffffffffffffffffffffffffffffffff1673ffffffffffffffffffffffffffffffffffffffff168152602001908152602001600020600086848151811061143457611434611c2f565b6020026020010151815260200190815260200160002060008282546114599190611c8d565b90915550506001016113c0565b50600073ffffffffffffffffffffffffffffffffffffffff168473ffffffffffffffffffffffffffffffffffffffff163373ffffffffffffffffffffffffffffffffffffffff167f4a39dc06d4c0dbc64b70af90fd698a233a518aa5d07e595d983b8c0526c8f7fb86866040516114de929190611eae565b60405180910390a450505050565b803573ffffffffffffffffffffffffffffffffffffffff8116811461151057600080fd5b919050565b6000806040838503121561152857600080fd5b611531836114ec565b946020939093013593505050565b7fffffffff000000000000000000000000000000000000000000000000000000008116811461156d57600080fd5b50565b60006020828403121561158257600080fd5b813561158d8161153f565b9392505050565b6000602082840312156115a657600080fd5b5035919050565b6000815180845260005b818110156115d3576020818501810151868301820152016115b7565b5060006020828601015260207fffffffffffffffffffffffffffffffffffffffffffffffffffffffffffffffe0601f83011685010191505092915050565b60208152600061158d60208301846115ad565b60008083601f84011261163657600080fd5b50813567ffffffffffffffff81111561164e57600080fd5b6020830191508360208260051b850101111561166957600080fd5b9250929050565b60008083601f84011261168257600080fd5b50813567ffffffffffffffff81111561169a57600080fd5b60208301915083602082850101111561166957600080fd5b60008060008060008060008060a0898b0312156116ce57600080fd5b6116d7896114ec565b97506116e560208a016114ec565b9650604089013567ffffffffffffffff8082111561170257600080fd5b61170e8c838d01611624565b909850965060608b013591508082111561172757600080fd5b6117338c838d01611624565b909650945060808b013591508082111561174c57600080fd5b506117598b828c01611670565b999c989b5096995094979396929594505050565b6000806000806040858703121561178357600080fd5b843567ffffffffffffffff8082111561179b57600080fd5b6117a788838901611624565b909650945060208701359150808211156117c057600080fd5b506117cd87828801611624565b95989497509550505050565b600081518084526020808501945080840160005b83811015611809578151875295820195908201906001016117ed565b509495945050505050565b60208152600061158d60208301846117d9565b7f4e487b7100000000000000000000000000000000000000000000000000000000600052604160045260246000fd5b604051601f82017fffffffffffffffffffffffffffffffffffffffffffffffffffffffffffffffe016810167ffffffffffffffff8111828210171561189d5761189d611827565b604052919050565b600082601f8301126118b657600080fd5b813567ffffffffffffffff8111156118d0576118d0611827565b61190160207fffffffffffffffffffffffffffffffffffffffffffffffffffffffffffffffe0601f84011601611856565b81815284602083860101111561191657600080fd5b816020850160208301376000918101602001919091529392505050565b6000806000806080858703121561194957600080fd5b611952856114ec565b93506020850135925060408501359150606085013567ffffffffffffffff81111561197c57600080fd5b611988878288016118a5565b91505092959194509250565b600080604083850312156119a757600080fd5b6119b0836114ec565b9150602083013580151581146119c557600080fd5b809150509250929050565b600082601f8301126119e157600080fd5b8135602067ffffffffffffffff8211156119fd576119fd611827565b8160051b611a0c828201611856565b9283528481018201928281019087851115611a2657600080fd5b83870192505b84831015611a4557823582529183019190830190611a2c565b979650505050505050565b60008060008060808587031215611a6657600080fd5b611a6f856114ec565b9350602085013567ffffffffffffffff80821115611a8c57600080fd5b611a98888389016119d0565b94506040870135915080821115611aae57600080fd5b611aba888389016119d0565b93506060870135915080821115611ad057600080fd5b50611988878288016118a5565b60008060408385031215611af057600080fd5b611af9836114ec565b9150611b07602084016114ec565b90509250929050565b60008060008060008060a08789031215611b2957600080fd5b611b32876114ec565b9550611b40602088016114ec565b94506040870135935060608701359250608087013567ffffffffffffffff811115611b6a57600080fd5b611b7689828a01611670565b979a9699509497509295939492505050565b600080600060608486031215611b9d57600080fd5b611ba6846114ec565b95602085013595506040909401359392505050565b600080600060608486031215611bd057600080fd5b611bd9846114ec565b9250602084013567ffffffffffffffff80821115611bf657600080fd5b611c02878388016119d0565b93506040860135915080821115611c1857600080fd5b50611c25868287016119d0565b9150509250925092565b7f4e487b7100000000000000000000000000000000000000000000000000000000600052603260045260246000fd5b7f4e487b7100000000000000000000000000000000000000000000000000000000600052601160045260246000fd5b8181038181111561033657610336611c5e565b8082018082111561033657610336611c5e565b81835260007f07ffffffffffffffffffffffffffffffffffffffffffffffffffffffffffffff831115611ce557600080fd5b8260051b80836020870137939093016020019392505050565b604081526000611d12604083018688611cb3565b8281036020840152611a45818587611cb3565b8183528181602085013750600060208284010152600060207fffffffffffffffffffffffffffffffffffffffffffffffffffffffffffffffe0601f840116840101905092915050565b600073ffffffffffffffffffffffffffffffffffffffff808b168352808a1660208401525060a06040830152611da860a08301888a611cb3565b8281036060840152611dbb818789611cb3565b90508281036080840152611dd0818587611d25565b9b9a5050505050505050505050565b600060208284031215611df157600080fd5b815161158d8161153f565b600060208284031215611e0e57600080fd5b61158d826114ec565b600073ffffffffffffffffffffffffffffffffffffffff808916835280881660208401525085604083015284606083015260a06080830152611e5d60a083018486611d25565b98975050505050505050565b600073ffffffffffffffffffffffffffffffffffffffff808816835280871660208401525084604083015283606083015260a06080830152611a4560a08301846115ad565b604081526000611ec160408301856117d9565b8281036020840152611ed381856117d9565b95945050505050565b600073ffffffffffffffffffffffffffffffffffffffff808816835280871660208401525060a06040830152611f1560a08301866117d9565b8281036060840152611f2781866117d9565b90508281036080840152611e5d81856115ad56fea164736f6c6343000811000a",
    "linkReferences": {}
  },
  "methodIdentifiers": {
    "balanceOf(address,uint256)": "00fdd58e",
    "balanceOfBatch(address[],uint256[])": "4e1273f4",
    "batchBurn(address,uint256[],uint256[])": "f6eb127a",
    "batchMint(address,uint256[],uint256[],bytes)": "b48ab8b6",
    "burn(address,uint256,uint256)": "f5298aca",
    "isApprovedForAll(address,address)": "e985e9c5",
    "mint(address,uint256,uint256,bytes)": "731133e9",
    "safeBatchTransferFrom(address,address,uint256[],uint256[],bytes)": "2eb2c2d6",
    "safeTransferFrom(address,address,uint256,uint256,bytes)": "f242432a",
    "setApprovalForAll(address,bool)": "a22cb465",
    "supportsInterface(bytes4)": "01ffc9a7",
    "totalSupply(uint256)": "bd85b039",
    "uri(uint256)": "0e89341c"
  },
  "id": 55
}