{
  "abi": [
    {
      "inputs": [],
      "stateMutability": "nonpayable",
      "type": "constructor"
    },
    {
      "anonymous": false,
      "inputs": [
        {
          "indexed": true,
          "internalType": "address",
          "name": "owner",
          "type": "address"
        },
        {
          "indexed": true,
          "internalType": "address",
          "name": "spender",
          "type": "address"
        },
        {
          "indexed": false,
          "internalType": "uint256",
          "name": "amount",
          "type": "uint256"
        }
      ],
      "name": "Approval",
      "type": "event"
    },
    {
      "anonymous": false,
      "inputs": [
        {
          "indexed": true,
          "internalType": "address",
          "name": "from",
          "type": "address"
        },
        {
          "indexed": true,
          "internalType": "address",
          "name": "to",
          "type": "address"
        },
        {
          "indexed": false,
          "internalType": "uint256",
          "name": "amount",
          "type": "uint256"
        }
      ],
      "name": "Transfer",
      "type": "event"
    },
    {
      "inputs": [
        {
          "internalType": "address",
          "name": "",
          "type": "address"
        },
        {
          "internalType": "address",
          "name": "",
          "type": "address"
        }
      ],
      "name": "allowance",
      "outputs": [
        {
          "internalType": "uint256",
          "name": "",
          "type": "uint256"
        }
      ],
      "stateMutability": "view",
      "type": "function"
    },
    {
      "inputs": [
        {
          "internalType": "address",
          "name": "spender",
          "type": "address"
        },
        {
          "internalType": "uint256",
          "name": "amount",
          "type": "uint256"
        }
      ],
      "name": "approve",
      "outputs": [],
      "stateMutability": "nonpayable",
      "type": "function"
    },
    {
      "inputs": [
        {
          "internalType": "address",
          "name": "",
          "type": "address"
        }
      ],
      "name": "balanceOf",
      "outputs": [
        {
          "internalType": "uint256",
          "name": "",
          "type": "uint256"
        }
      ],
      "stateMutability": "view",
      "type": "function"
    },
    {
      "inputs": [],
      "name": "decimals",
      "outputs": [
        {
          "internalType": "uint8",
          "name": "",
          "type": "uint8"
        }
      ],
      "stateMutability": "view",
      "type": "function"
    },
    {
      "inputs": [],
      "name": "name",
      "outputs": [
        {
          "internalType": "string",
          "name": "",
          "type": "string"
        }
      ],
      "stateMutability": "view",
      "type": "function"
    },
    {
      "inputs": [
        {
          "internalType": "bytes",
          "name": "_garbage",
          "type": "bytes"
        }
      ],
      "name": "setGarbage",
      "outputs": [],
      "stateMutability": "nonpayable",
      "type": "function"
    },
    {
      "inputs": [],
      "name": "symbol",
      "outputs": [
        {
          "internalType": "string",
          "name": "",
          "type": "string"
        }
      ],
      "stateMutability": "view",
      "type": "function"
    },
    {
      "inputs": [],
      "name": "totalSupply",
      "outputs": [
        {
          "internalType": "uint256",
          "name": "",
          "type": "uint256"
        }
      ],
      "stateMutability": "view",
      "type": "function"
    },
    {
      "inputs": [
        {
          "internalType": "address",
          "name": "to",
          "type": "address"
        },
        {
          "internalType": "uint256",
          "name": "amount",
          "type": "uint256"
        }
      ],
      "name": "transfer",
      "outputs": [],
      "stateMutability": "nonpayable",
      "type": "function"
    },
    {
      "inputs": [
        {
          "internalType": "address",
          "name": "from",
          "type": "address"
        },
        {
          "internalType": "address",
          "name": "to",
          "type": "address"
        },
        {
          "internalType": "uint256",
          "name": "amount",
          "type": "uint256"
        }
      ],
      "name": "transferFrom",
      "outputs": [],
      "stateMutability": "nonpayable",
      "type": "function"
    }
  ],
  "bytecode": {
    "object": "0x608060405234801561001057600080fd5b50600019600081815533815260016020526040902055610936806100356000396000f3fe608060405234801561001057600080fd5b50600436106100be5760003560e01c8063313ce5671161007657806395d89b411161005b57806395d89b41146101a1578063a9059cbb146101dd578063dd62ed3e146101f057600080fd5b8063313ce5671461016757806370a082311461018157600080fd5b806318160ddd116100a757806318160ddd1461012a57806323b872dd146101415780632abbae0f1461015457600080fd5b806306fdde03146100c3578063095ea7b314610115575b600080fd5b6100ff6040518060400160405280601381526020017f52657475726e7347617262616765546f6b656e0000000000000000000000000081525081565b60405161010c91906104df565b60405180910390f35b610128610123366004610574565b61021b565b005b61013360005481565b60405190815260200161010c565b61012861014f36600461059e565b61031b565b610128610162366004610609565b61044c565b61016f601281565b60405160ff909116815260200161010c565b61013361018f3660046106d8565b60016020526000908152604090205481565b6100ff6040518060400160405280600381526020017f524754000000000000000000000000000000000000000000000000000000000081525081565b6101286101eb366004610574565b61045c565b6101336101fe3660046106fa565b600260209081526000928352604080842090915290825290205481565b33600081815260026020908152604080832073ffffffffffffffffffffffffffffffffffffffff871680855290835292819020859055518481529192917f8c5be1e5ebec7d5bd14f71427d1e84f3dd0314c0f7b2291e5b200ac8c7c3b92591015b60405180910390a36000600380546102939061072d565b80601f01602080910402602001604051908101604052809291908181526020018280546102bf9061072d565b801561030c5780601f106102e15761010080835404028352916020019161030c565b820191906000526020600020905b8154815290600101906020018083116102ef57829003601f168201915b50505050509050805160208201f35b73ffffffffffffffffffffffffffffffffffffffff831660009081526002602090815260408083203384529091529020547fffffffffffffffffffffffffffffffffffffffffffffffffffffffffffffffff81146103af5761037d8282610780565b73ffffffffffffffffffffffffffffffffffffffff851660009081526002602090815260408083203384529091529020555b73ffffffffffffffffffffffffffffffffffffffff8416600090815260016020526040812080548492906103e4908490610780565b909155505073ffffffffffffffffffffffffffffffffffffffff808416600081815260016020526040908190208054860190555190918616907fddf252ad1be2c89b69c2b068fc378daa952ba7f163c4a11628f55a4df523b3ef9061027c9086815260200190565b6003610458828261080f565b5050565b336000908152600160205260408120805483929061047b908490610780565b909155505073ffffffffffffffffffffffffffffffffffffffff8216600081815260016020526040908190208054840190555133907fddf252ad1be2c89b69c2b068fc378daa952ba7f163c4a11628f55a4df523b3ef9061027c9085815260200190565b600060208083528351808285015260005b8181101561050c578581018301518582016040015282016104f0565b5060006040828601015260407fffffffffffffffffffffffffffffffffffffffffffffffffffffffffffffffe0601f8301168501019250505092915050565b803573ffffffffffffffffffffffffffffffffffffffff8116811461056f57600080fd5b919050565b6000806040838503121561058757600080fd5b6105908361054b565b946020939093013593505050565b6000806000606084860312156105b357600080fd5b6105bc8461054b565b92506105ca6020850161054b565b9150604084013590509250925092565b7f4e487b7100000000000000000000000000000000000000000000000000000000600052604160045260246000fd5b60006020828403121561061b57600080fd5b813567ffffffffffffffff8082111561063357600080fd5b818401915084601f83011261064757600080fd5b813581811115610659576106596105da565b604051601f82017fffffffffffffffffffffffffffffffffffffffffffffffffffffffffffffffe0908116603f0116810190838211818310171561069f5761069f6105da565b816040528281528760208487010111156106b857600080fd5b826020860160208301376000928101602001929092525095945050505050565b6000602082840312156106ea57600080fd5b6106f38261054b565b9392505050565b6000806040838503121561070d57600080fd5b6107168361054b565b91506107246020840161054b565b90509250929050565b600181811c9082168061074157607f821691505b60208210810361077a577f4e487b7100000000000000000000000000000000000000000000000000000000600052602260045260246000fd5b50919050565b818103818111156107ba577f4e487b7100000000000000000000000000000000000000000000000000000000600052601160045260246000fd5b92915050565b601f82111561080a57600081815260208120601f850160051c810160208610156107e75750805b601f850160051c820191505b81811015610806578281556001016107f3565b5050505b505050565b815167ffffffffffffffff811115610829576108296105da565b61083d81610837845461072d565b846107c0565b602080601f831160018114610890576000841561085a5750858301515b7fffffffffffffffffffffffffffffffffffffffffffffffffffffffffffffffff600386901b1c1916600185901b178555610806565b6000858152602081207fffffffffffffffffffffffffffffffffffffffffffffffffffffffffffffffe08616915b828110156108dd578886015182559484019460019091019084016108be565b508582101561091957878501517fffffffffffffffffffffffffffffffffffffffffffffffffffffffffffffffff600388901b60f8161c191681555b5050505050600190811b0190555056fea164736f6c6343000811000a",
    "linkReferences": {}
  },
  "methodIdentifiers": {
    "allowance(address,address)": "dd62ed3e",
    "approve(address,uint256)": "095ea7b3",
    "balanceOf(address)": "70a08231",
    "decimals()": "313ce567",
    "name()": "06fdde03",
    "setGarbage(bytes)": "2abbae0f",
    "symbol()": "95d89b41",
    "totalSupply()": "18160ddd",
    "transfer(address,uint256)": "a9059cbb",
    "transferFrom(address,address,uint256)": "23b872dd"
  },
  "id": 69
}