{
  "abi": [
    {
      "inputs": [
        {
          "internalType": "string",
          "name": "_name",
          "type": "string"
        },
        {
          "internalType": "string",
          "name": "_symbol",
          "type": "string"
        },
        {
          "internalType": "uint8",
          "name": "_decimals",
          "type": "uint8"
        }
      ],
      "stateMutability": "nonpayable",
      "type": "constructor"
    },
    {
      "anonymous": false,
      "inputs": [
        {
          "indexed": true,
          "internalType": "address",
          "name": "owner",
          "type": "address"
        },
        {
          "indexed": true,
          "internalType": "address",
          "name": "spender",
          "type": "address"
        },
        {
          "indexed": false,
          "internalType": "uint256",
          "name": "amount",
          "type": "uint256"
        }
      ],
      "name": "Approval",
      "type": "event"
    },
    {
      "anonymous": false,
      "inputs": [
        {
          "indexed": true,
          "internalType": "address",
          "name": "from",
          "type": "address"
        },
        {
          "indexed": true,
          "internalType": "address",
          "name": "to",
          "type": "address"
        },
        {
          "indexed": false,
          "internalType": "uint256",
          "name": "amount",
          "type": "uint256"
        }
      ],
      "name": "Transfer",
      "type": "event"
    },
    {
      "inputs": [],
      "name": "DOMAIN_SEPARATOR",
      "outputs": [
        {
          "internalType": "bytes32",
          "name": "",
          "type": "bytes32"
        }
      ],
      "stateMutability": "view",
      "type": "function"
    },
    {
      "inputs": [
        {
          "internalType": "address",
          "name": "",
          "type": "address"
        },
        {
          "internalType": "address",
          "name": "",
          "type": "address"
        }
      ],
      "name": "allowance",
      "outputs": [
        {
          "internalType": "uint256",
          "name": "",
          "type": "uint256"
        }
      ],
      "stateMutability": "view",
      "type": "function"
    },
    {
      "inputs": [
        {
          "internalType": "address",
          "name": "spender",
          "type": "address"
        },
        {
          "internalType": "uint256",
          "name": "amount",
          "type": "uint256"
        }
      ],
      "name": "approve",
      "outputs": [
        {
          "internalType": "bool",
          "name": "",
          "type": "bool"
        }
      ],
      "stateMutability": "nonpayable",
      "type": "function"
    },
    {
      "inputs": [
        {
          "internalType": "address",
          "name": "",
          "type": "address"
        }
      ],
      "name": "balanceOf",
      "outputs": [
        {
          "internalType": "uint256",
          "name": "",
          "type": "uint256"
        }
      ],
      "stateMutability": "view",
      "type": "function"
    },
    {
      "inputs": [
        {
          "internalType": "address",
          "name": "from",
          "type": "address"
        },
        {
          "internalType": "uint256",
          "name": "value",
          "type": "uint256"
        }
      ],
      "name": "burn",
      "outputs": [],
      "stateMutability": "nonpayable",
      "type": "function"
    },
    {
      "inputs": [
        {
          "internalType": "address",
          "name": "from",
          "type": "address"
        },
        {
          "internalType": "uint256",
          "name": "value",
          "type": "uint256"
        }
      ],
      "name": "burnFrom",
      "outputs": [],
      "stateMutability": "nonpayable",
      "type": "function"
    },
    {
      "inputs": [],
      "name": "decimals",
      "outputs": [
        {
          "internalType": "uint8",
          "name": "",
          "type": "uint8"
        }
      ],
      "stateMutability": "view",
      "type": "function"
    },
    {
      "inputs": [
        {
          "internalType": "address",
          "name": "to",
          "type": "address"
        },
        {
          "internalType": "uint256",
          "name": "value",
          "type": "uint256"
        }
      ],
      "name": "mint",
      "outputs": [],
      "stateMutability": "nonpayable",
      "type": "function"
    },
    {
      "inputs": [],
      "name": "name",
      "outputs": [
        {
          "internalType": "string",
          "name": "",
          "type": "string"
        }
      ],
      "stateMutability": "view",
      "type": "function"
    },
    {
      "inputs": [
        {
          "internalType": "address",
          "name": "",
          "type": "address"
        }
      ],
      "name": "nonces",
      "outputs": [
        {
          "internalType": "uint256",
          "name": "",
          "type": "uint256"
        }
      ],
      "stateMutability": "view",
      "type": "function"
    },
    {
      "inputs": [
        {
          "internalType": "address",
          "name": "owner",
          "type": "address"
        },
        {
          "internalType": "address",
          "name": "spender",
          "type": "address"
        },
        {
          "internalType": "uint256",
          "name": "value",
          "type": "uint256"
        },
        {
          "internalType": "uint256",
          "name": "deadline",
          "type": "uint256"
        },
        {
          "internalType": "uint8",
          "name": "v",
          "type": "uint8"
        },
        {
          "internalType": "bytes32",
          "name": "r",
          "type": "bytes32"
        },
        {
          "internalType": "bytes32",
          "name": "s",
          "type": "bytes32"
        }
      ],
      "name": "permit",
      "outputs": [],
      "stateMutability": "nonpayable",
      "type": "function"
    },
    {
      "inputs": [],
      "name": "symbol",
      "outputs": [
        {
          "internalType": "string",
          "name": "",
          "type": "string"
        }
      ],
      "stateMutability": "view",
      "type": "function"
    },
    {
      "inputs": [],
      "name": "totalSupply",
      "outputs": [
        {
          "internalType": "uint256",
          "name": "",
          "type": "uint256"
        }
      ],
      "stateMutability": "view",
      "type": "function"
    },
    {
      "inputs": [
        {
          "internalType": "address",
          "name": "to",
          "type": "address"
        },
        {
          "internalType": "uint256",
          "name": "amount",
          "type": "uint256"
        }
      ],
      "name": "transfer",
      "outputs": [
        {
          "internalType": "bool",
          "name": "",
          "type": "bool"
        }
      ],
      "stateMutability": "nonpayable",
      "type": "function"
    },
    {
      "inputs": [
        {
          "internalType": "address",
          "name": "from",
          "type": "address"
        },
        {
          "internalType": "address",
          "name": "to",
          "type": "address"
        },
        {
          "internalType": "uint256",
          "name": "amount",
          "type": "uint256"
        }
      ],
      "name": "transferFrom",
      "outputs": [
        {
          "internalType": "bool",
          "name": "",
          "type": "bool"
        }
      ],
      "stateMutability": "nonpayable",
      "type": "function"
    }
  ],
  "bytecode": {
    "object": "0x60e06040523480156200001157600080fd5b5060405162001234380380620012348339810160408190526200003491620001db565b8282826000620000458482620002ef565b506001620000548382620002ef565b5060ff81166080524660a0526200006a6200007a565b60c0525062000439945050505050565b60007f8b73c3c69bb8fe3d512ecc4cf759cc79239f7b179b0ffacaa9a75d522b39400f6000604051620000ae9190620003bb565b6040805191829003822060208301939093528101919091527fc89efdaa54c0f20c7adf612882df0950f5a951637e0307cdcb4c672f298b8bc660608201524660808201523060a082015260c00160405160208183030381529060405280519060200120905090565b634e487b7160e01b600052604160045260246000fd5b600082601f8301126200013e57600080fd5b81516001600160401b03808211156200015b576200015b62000116565b604051601f8301601f19908116603f0116810190828211818310171562000186576200018662000116565b81604052838152602092508683858801011115620001a357600080fd5b600091505b83821015620001c75785820183015181830184015290820190620001a8565b600093810190920192909252949350505050565b600080600060608486031215620001f157600080fd5b83516001600160401b03808211156200020957600080fd5b62000217878388016200012c565b945060208601519150808211156200022e57600080fd5b506200023d868287016200012c565b925050604084015160ff811681146200025557600080fd5b809150509250925092565b600181811c908216806200027557607f821691505b6020821081036200029657634e487b7160e01b600052602260045260246000fd5b50919050565b601f821115620002ea57600081815260208120601f850160051c81016020861015620002c55750805b601f850160051c820191505b81811015620002e657828155600101620002d1565b5050505b505050565b81516001600160401b038111156200030b576200030b62000116565b62000323816200031c845462000260565b846200029c565b602080601f8311600181146200035b5760008415620003425750858301515b600019600386901b1c1916600185901b178555620002e6565b600085815260208120601f198616915b828110156200038c578886015182559484019460019091019084016200036b565b5085821015620003ab5787850151600019600388901b60f8161c191681555b5050505050600190811b01905550565b6000808354620003cb8162000260565b60018281168015620003e65760018114620003fc576200042d565b60ff19841687528215158302870194506200042d565b8760005260208060002060005b85811015620004245781548a82015290840190820162000409565b50505082870194505b50929695505050505050565b60805160a05160c051610dcb6200046960003960006104ec015260006104b70152600061016a0152610dcb6000f3fe608060405234801561001057600080fd5b50600436106100f55760003560e01c806370a08231116100975780639dc29fac116100665780639dc29fac146101db578063a9059cbb14610216578063d505accf14610229578063dd62ed3e1461023c57600080fd5b806370a08231146101bb57806379cc6790146101db5780637ecebe00146101ee57806395d89b411461020e57600080fd5b806323b872dd116100d357806323b872dd14610152578063313ce567146101655780633644e5151461019e57806340c10f19146101a657600080fd5b806306fdde03146100fa578063095ea7b31461011857806318160ddd1461013b575b600080fd5b610102610267565b60405161010f9190610a7d565b60405180910390f35b61012b610126366004610b12565b6102f5565b604051901515815260200161010f565b61014460025481565b60405190815260200161010f565b61012b610160366004610b3c565b61036f565b61018c7f000000000000000000000000000000000000000000000000000000000000000081565b60405160ff909116815260200161010f565b6101446104b3565b6101b96101b4366004610b12565b61050e565b005b6101446101c9366004610b78565b60036020526000908152604090205481565b6101b96101e9366004610b12565b61051c565b6101446101fc366004610b78565b60056020526000908152604090205481565b610102610526565b61012b610224366004610b12565b610533565b6101b9610237366004610b9a565b6105b8565b61014461024a366004610c0d565b600460209081526000928352604080842090915290825290205481565b6000805461027490610c40565b80601f01602080910402602001604051908101604052809291908181526020018280546102a090610c40565b80156102ed5780601f106102c2576101008083540402835291602001916102ed565b820191906000526020600020905b8154815290600101906020018083116102d057829003601f168201915b505050505081565b33600081815260046020908152604080832073ffffffffffffffffffffffffffffffffffffffff8716808552925280832085905551919290917f8c5be1e5ebec7d5bd14f71427d1e84f3dd0314c0f7b2291e5b200ac8c7c3b9259061035d9086815260200190565b60405180910390a35060015b92915050565b73ffffffffffffffffffffffffffffffffffffffff831660009081526004602090815260408083203384529091528120547fffffffffffffffffffffffffffffffffffffffffffffffffffffffffffffffff8114610403576103d18382610cc2565b73ffffffffffffffffffffffffffffffffffffffff861660009081526004602090815260408083203384529091529020555b73ffffffffffffffffffffffffffffffffffffffff851660009081526003602052604081208054859290610438908490610cc2565b909155505073ffffffffffffffffffffffffffffffffffffffff808516600081815260036020526040908190208054870190555190918716907fddf252ad1be2c89b69c2b068fc378daa952ba7f163c4a11628f55a4df523b3ef906104a09087815260200190565b60405180910390a3506001949350505050565b60007f000000000000000000000000000000000000000000000000000000000000000046146104e9576104e46108dc565b905090565b507f000000000000000000000000000000000000000000000000000000000000000090565b6105188282610976565b5050565b61051882826109ef565b6001805461027490610c40565b33600090815260036020526040812080548391908390610554908490610cc2565b909155505073ffffffffffffffffffffffffffffffffffffffff8316600081815260036020526040908190208054850190555133907fddf252ad1be2c89b69c2b068fc378daa952ba7f163c4a11628f55a4df523b3ef9061035d9086815260200190565b42841015610627576040517f08c379a000000000000000000000000000000000000000000000000000000000815260206004820152601760248201527f5045524d49545f444541444c494e455f4558504952454400000000000000000060448201526064015b60405180910390fd5b600060016106336104b3565b73ffffffffffffffffffffffffffffffffffffffff8a811660008181526005602090815260409182902080546001810190915582517f6e71edae12b1b97f4d1f60370fef10105fa2faae0126114a169c64845d6126c98184015280840194909452938d166060840152608083018c905260a083019390935260c08083018b90528151808403909101815260e0830190915280519201919091207f190100000000000000000000000000000000000000000000000000000000000061010083015261010282019290925261012281019190915261014201604080517fffffffffffffffffffffffffffffffffffffffffffffffffffffffffffffffe08184030181528282528051602091820120600084529083018083525260ff871690820152606081018590526080810184905260a0016020604051602081039080840390855afa158015610785573d6000803e3d6000fd5b50506040517fffffffffffffffffffffffffffffffffffffffffffffffffffffffffffffffe0015191505073ffffffffffffffffffffffffffffffffffffffff81161580159061080057508773ffffffffffffffffffffffffffffffffffffffff168173ffffffffffffffffffffffffffffffffffffffff16145b610866576040517f08c379a000000000000000000000000000000000000000000000000000000000815260206004820152600e60248201527f494e56414c49445f5349474e4552000000000000000000000000000000000000604482015260640161061e565b73ffffffffffffffffffffffffffffffffffffffff90811660009081526004602090815260408083208a8516808552908352928190208990555188815291928a16917f8c5be1e5ebec7d5bd14f71427d1e84f3dd0314c0f7b2291e5b200ac8c7c3b925910160405180910390a350505050505050565b60007f8b73c3c69bb8fe3d512ecc4cf759cc79239f7b179b0ffacaa9a75d522b39400f600060405161090e9190610cd5565b6040805191829003822060208301939093528101919091527fc89efdaa54c0f20c7adf612882df0950f5a951637e0307cdcb4c672f298b8bc660608201524660808201523060a082015260c00160405160208183030381529060405280519060200120905090565b80600260008282546109889190610dab565b909155505073ffffffffffffffffffffffffffffffffffffffff82166000818152600360209081526040808320805486019055518481527fddf252ad1be2c89b69c2b068fc378daa952ba7f163c4a11628f55a4df523b3ef91015b60405180910390a35050565b73ffffffffffffffffffffffffffffffffffffffff821660009081526003602052604081208054839290610a24908490610cc2565b909155505060028054829003905560405181815260009073ffffffffffffffffffffffffffffffffffffffff8416907fddf252ad1be2c89b69c2b068fc378daa952ba7f163c4a11628f55a4df523b3ef906020016109e3565b600060208083528351808285015260005b81811015610aaa57858101830151858201604001528201610a8e565b5060006040828601015260407fffffffffffffffffffffffffffffffffffffffffffffffffffffffffffffffe0601f8301168501019250505092915050565b803573ffffffffffffffffffffffffffffffffffffffff81168114610b0d57600080fd5b919050565b60008060408385031215610b2557600080fd5b610b2e83610ae9565b946020939093013593505050565b600080600060608486031215610b5157600080fd5b610b5a84610ae9565b9250610b6860208501610ae9565b9150604084013590509250925092565b600060208284031215610b8a57600080fd5b610b9382610ae9565b9392505050565b600080600080600080600060e0888a031215610bb557600080fd5b610bbe88610ae9565b9650610bcc60208901610ae9565b95506040880135945060608801359350608088013560ff81168114610bf057600080fd5b9699959850939692959460a0840135945060c09093013592915050565b60008060408385031215610c2057600080fd5b610c2983610ae9565b9150610c3760208401610ae9565b90509250929050565b600181811c90821680610c5457607f821691505b602082108103610c8d577f4e487b7100000000000000000000000000000000000000000000000000000000600052602260045260246000fd5b50919050565b7f4e487b7100000000000000000000000000000000000000000000000000000000600052601160045260246000fd5b8181038181111561036957610369610c93565b600080835481600182811c915080831680610cf157607f831692505b60208084108203610d29577f4e487b710000000000000000000000000000000000000000000000000000000086526022600452602486fd5b818015610d3d5760018114610d7057610d9d565b7fffffffffffffffffffffffffffffffffffffffffffffffffffffffffffffff0086168952841515850289019650610d9d565b60008a81526020902060005b86811015610d955781548b820152908501908301610d7c565b505084890196505b509498975050505050505050565b8082018082111561036957610369610c9356fea164736f6c6343000811000a",
    "linkReferences": {}
  },
  "methodIdentifiers": {
    "DOMAIN_SEPARATOR()": "3644e515",
    "allowance(address,address)": "dd62ed3e",
    "approve(address,uint256)": "095ea7b3",
    "balanceOf(address)": "70a08231",
    "burn(address,uint256)": "9dc29fac",
    "burnFrom(address,uint256)": "79cc6790",
    "decimals()": "313ce567",
    "mint(address,uint256)": "40c10f19",
    "name()": "06fdde03",
    "nonces(address)": "7ecebe00",
    "permit(address,address,uint256,uint256,uint8,bytes32,bytes32)": "d505accf",
    "symbol()": "95d89b41",
    "totalSupply()": "18160ddd",
    "transfer(address,uint256)": "a9059cbb",
    "transferFrom(address,address,uint256)": "23b872dd"
  },
  "id": 58
}