{
  "abi": [
    {
      "inputs": [
        {
          "internalType": "contract ERC20",
          "name": "_underlying",
          "type": "address"
        },
        {
          "internalType": "string",
          "name": "_name",
          "type": "string"
        },
        {
          "internalType": "string",
          "name": "_symbol",
          "type": "string"
        }
      ],
      "stateMutability": "nonpayable",
      "type": "constructor"
    },
    {
      "anonymous": false,
      "inputs": [
        {
          "indexed": true,
          "internalType": "address",
          "name": "owner",
          "type": "address"
        },
        {
          "indexed": true,
          "internalType": "address",
          "name": "spender",
          "type": "address"
        },
        {
          "indexed": false,
          "internalType": "uint256",
          "name": "amount",
          "type": "uint256"
        }
      ],
      "name": "Approval",
      "type": "event"
    },
    {
      "anonymous": false,
      "inputs": [
        {
          "indexed": true,
          "internalType": "address",
          "name": "caller",
          "type": "address"
        },
        {
          "indexed": true,
          "internalType": "address",
          "name": "owner",
          "type": "address"
        },
        {
          "indexed": false,
          "internalType": "uint256",
          "name": "assets",
          "type": "uint256"
        },
        {
          "indexed": false,
          "internalType": "uint256",
          "name": "shares",
          "type": "uint256"
        }
      ],
      "name": "Deposit",
      "type": "event"
    },
    {
      "anonymous": false,
      "inputs": [
        {
          "indexed": true,
          "internalType": "address",
          "name": "from",
          "type": "address"
        },
        {
          "indexed": true,
          "internalType": "address",
          "name": "to",
          "type": "address"
        },
        {
          "indexed": false,
          "internalType": "uint256",
          "name": "amount",
          "type": "uint256"
        }
      ],
      "name": "Transfer",
      "type": "event"
    },
    {
      "anonymous": false,
      "inputs": [
        {
          "indexed": true,
          "internalType": "address",
          "name": "caller",
          "type": "address"
        },
        {
          "indexed": true,
          "internalType": "address",
          "name": "receiver",
          "type": "address"
        },
        {
          "indexed": true,
          "internalType": "address",
          "name": "owner",
          "type": "address"
        },
        {
          "indexed": false,
          "internalType": "uint256",
          "name": "assets",
          "type": "uint256"
        },
        {
          "indexed": false,
          "internalType": "uint256",
          "name": "shares",
          "type": "uint256"
        }
      ],
      "name": "Withdraw",
      "type": "event"
    },
    {
      "inputs": [],
      "name": "DOMAIN_SEPARATOR",
      "outputs": [
        {
          "internalType": "bytes32",
          "name": "",
          "type": "bytes32"
        }
      ],
      "stateMutability": "view",
      "type": "function"
    },
    {
      "inputs": [],
      "name": "afterDepositHookCalledCounter",
      "outputs": [
        {
          "internalType": "uint256",
          "name": "",
          "type": "uint256"
        }
      ],
      "stateMutability": "view",
      "type": "function"
    },
    {
      "inputs": [
        {
          "internalType": "address",
          "name": "",
          "type": "address"
        },
        {
          "internalType": "address",
          "name": "",
          "type": "address"
        }
      ],
      "name": "allowance",
      "outputs": [
        {
          "internalType": "uint256",
          "name": "",
          "type": "uint256"
        }
      ],
      "stateMutability": "view",
      "type": "function"
    },
    {
      "inputs": [
        {
          "internalType": "address",
          "name": "spender",
          "type": "address"
        },
        {
          "internalType": "uint256",
          "name": "amount",
          "type": "uint256"
        }
      ],
      "name": "approve",
      "outputs": [
        {
          "internalType": "bool",
          "name": "",
          "type": "bool"
        }
      ],
      "stateMutability": "nonpayable",
      "type": "function"
    },
    {
      "inputs": [],
      "name": "asset",
      "outputs": [
        {
          "internalType": "address",
          "name": "",
          "type": "address"
        }
      ],
      "stateMutability": "view",
      "type": "function"
    },
    {
      "inputs": [
        {
          "internalType": "address",
          "name": "",
          "type": "address"
        }
      ],
      "name": "balanceOf",
      "outputs": [
        {
          "internalType": "uint256",
          "name": "",
          "type": "uint256"
        }
      ],
      "stateMutability": "view",
      "type": "function"
    },
    {
      "inputs": [],
      "name": "beforeWithdrawHookCalledCounter",
      "outputs": [
        {
          "internalType": "uint256",
          "name": "",
          "type": "uint256"
        }
      ],
      "stateMutability": "view",
      "type": "function"
    },
    {
      "inputs": [
        {
          "internalType": "uint256",
          "name": "shares",
          "type": "uint256"
        }
      ],
      "name": "convertToAssets",
      "outputs": [
        {
          "internalType": "uint256",
          "name": "",
          "type": "uint256"
        }
      ],
      "stateMutability": "view",
      "type": "function"
    },
    {
      "inputs": [
        {
          "internalType": "uint256",
          "name": "assets",
          "type": "uint256"
        }
      ],
      "name": "convertToShares",
      "outputs": [
        {
          "internalType": "uint256",
          "name": "",
          "type": "uint256"
        }
      ],
      "stateMutability": "view",
      "type": "function"
    },
    {
      "inputs": [],
      "name": "decimals",
      "outputs": [
        {
          "internalType": "uint8",
          "name": "",
          "type": "uint8"
        }
      ],
      "stateMutability": "view",
      "type": "function"
    },
    {
      "inputs": [
        {
          "internalType": "uint256",
          "name": "assets",
          "type": "uint256"
        },
        {
          "internalType": "address",
          "name": "receiver",
          "type": "address"
        }
      ],
      "name": "deposit",
      "outputs": [
        {
          "internalType": "uint256",
          "name": "shares",
          "type": "uint256"
        }
      ],
      "stateMutability": "nonpayable",
      "type": "function"
    },
    {
      "inputs": [
        {
          "internalType": "address",
          "name": "",
          "type": "address"
        }
      ],
      "name": "maxDeposit",
      "outputs": [
        {
          "internalType": "uint256",
          "name": "",
          "type": "uint256"
        }
      ],
      "stateMutability": "view",
      "type": "function"
    },
    {
      "inputs": [
        {
          "internalType": "address",
          "name": "",
          "type": "address"
        }
      ],
      "name": "maxMint",
      "outputs": [
        {
          "internalType": "uint256",
          "name": "",
          "type": "uint256"
        }
      ],
      "stateMutability": "view",
      "type": "function"
    },
    {
      "inputs": [
        {
          "internalType": "address",
          "name": "owner",
          "type": "address"
        }
      ],
      "name": "maxRedeem",
      "outputs": [
        {
          "internalType": "uint256",
          "name": "",
          "type": "uint256"
        }
      ],
      "stateMutability": "view",
      "type": "function"
    },
    {
      "inputs": [
        {
          "internalType": "address",
          "name": "owner",
          "type": "address"
        }
      ],
      "name": "maxWithdraw",
      "outputs": [
        {
          "internalType": "uint256",
          "name": "",
          "type": "uint256"
        }
      ],
      "stateMutability": "view",
      "type": "function"
    },
    {
      "inputs": [
        {
          "internalType": "uint256",
          "name": "shares",
          "type": "uint256"
        },
        {
          "internalType": "address",
          "name": "receiver",
          "type": "address"
        }
      ],
      "name": "mint",
      "outputs": [
        {
          "internalType": "uint256",
          "name": "assets",
          "type": "uint256"
        }
      ],
      "stateMutability": "nonpayable",
      "type": "function"
    },
    {
      "inputs": [],
      "name": "name",
      "outputs": [
        {
          "internalType": "string",
          "name": "",
          "type": "string"
        }
      ],
      "stateMutability": "view",
      "type": "function"
    },
    {
      "inputs": [
        {
          "internalType": "address",
          "name": "",
          "type": "address"
        }
      ],
      "name": "nonces",
      "outputs": [
        {
          "internalType": "uint256",
          "name": "",
          "type": "uint256"
        }
      ],
      "stateMutability": "view",
      "type": "function"
    },
    {
      "inputs": [
        {
          "internalType": "address",
          "name": "owner",
          "type": "address"
        },
        {
          "internalType": "address",
          "name": "spender",
          "type": "address"
        },
        {
          "internalType": "uint256",
          "name": "value",
          "type": "uint256"
        },
        {
          "internalType": "uint256",
          "name": "deadline",
          "type": "uint256"
        },
        {
          "internalType": "uint8",
          "name": "v",
          "type": "uint8"
        },
        {
          "internalType": "bytes32",
          "name": "r",
          "type": "bytes32"
        },
        {
          "internalType": "bytes32",
          "name": "s",
          "type": "bytes32"
        }
      ],
      "name": "permit",
      "outputs": [],
      "stateMutability": "nonpayable",
      "type": "function"
    },
    {
      "inputs": [
        {
          "internalType": "uint256",
          "name": "assets",
          "type": "uint256"
        }
      ],
      "name": "previewDeposit",
      "outputs": [
        {
          "internalType": "uint256",
          "name": "",
          "type": "uint256"
        }
      ],
      "stateMutability": "view",
      "type": "function"
    },
    {
      "inputs": [
        {
          "internalType": "uint256",
          "name": "shares",
          "type": "uint256"
        }
      ],
      "name": "previewMint",
      "outputs": [
        {
          "internalType": "uint256",
          "name": "",
          "type": "uint256"
        }
      ],
      "stateMutability": "view",
      "type": "function"
    },
    {
      "inputs": [
        {
          "internalType": "uint256",
          "name": "shares",
          "type": "uint256"
        }
      ],
      "name": "previewRedeem",
      "outputs": [
        {
          "internalType": "uint256",
          "name": "",
          "type": "uint256"
        }
      ],
      "stateMutability": "view",
      "type": "function"
    },
    {
      "inputs": [
        {
          "internalType": "uint256",
          "name": "assets",
          "type": "uint256"
        }
      ],
      "name": "previewWithdraw",
      "outputs": [
        {
          "internalType": "uint256",
          "name": "",
          "type": "uint256"
        }
      ],
      "stateMutability": "view",
      "type": "function"
    },
    {
      "inputs": [
        {
          "internalType": "uint256",
          "name": "shares",
          "type": "uint256"
        },
        {
          "internalType": "address",
          "name": "receiver",
          "type": "address"
        },
        {
          "internalType": "address",
          "name": "owner",
          "type": "address"
        }
      ],
      "name": "redeem",
      "outputs": [
        {
          "internalType": "uint256",
          "name": "assets",
          "type": "uint256"
        }
      ],
      "stateMutability": "nonpayable",
      "type": "function"
    },
    {
      "inputs": [],
      "name": "symbol",
      "outputs": [
        {
          "internalType": "string",
          "name": "",
          "type": "string"
        }
      ],
      "stateMutability": "view",
      "type": "function"
    },
    {
      "inputs": [],
      "name": "totalAssets",
      "outputs": [
        {
          "internalType": "uint256",
          "name": "",
          "type": "uint256"
        }
      ],
      "stateMutability": "view",
      "type": "function"
    },
    {
      "inputs": [],
      "name": "totalSupply",
      "outputs": [
        {
          "internalType": "uint256",
          "name": "",
          "type": "uint256"
        }
      ],
      "stateMutability": "view",
      "type": "function"
    },
    {
      "inputs": [
        {
          "internalType": "address",
          "name": "to",
          "type": "address"
        },
        {
          "internalType": "uint256",
          "name": "amount",
          "type": "uint256"
        }
      ],
      "name": "transfer",
      "outputs": [
        {
          "internalType": "bool",
          "name": "",
          "type": "bool"
        }
      ],
      "stateMutability": "nonpayable",
      "type": "function"
    },
    {
      "inputs": [
        {
          "internalType": "address",
          "name": "from",
          "type": "address"
        },
        {
          "internalType": "address",
          "name": "to",
          "type": "address"
        },
        {
          "internalType": "uint256",
          "name": "amount",
          "type": "uint256"
        }
      ],
      "name": "transferFrom",
      "outputs": [
        {
          "internalType": "bool",
          "name": "",
          "type": "bool"
        }
      ],
      "stateMutability": "nonpayable",
      "type": "function"
    },
    {
      "inputs": [
        {
          "internalType": "uint256",
          "name": "assets",
          "type": "uint256"
        },
        {
          "internalType": "address",
          "name": "receiver",
          "type": "address"
        },
        {
          "internalType": "address",
          "name": "owner",
          "type": "address"
        }
      ],
      "name": "withdraw",
      "outputs": [
        {
          "internalType": "uint256",
          "name": "shares",
          "type": "uint256"
        }
      ],
      "stateMutability": "nonpayable",
      "type": "function"
    }
  ],
  "bytecode": {
    "object": "0x610100604052600060065560006007553480156200001c57600080fd5b5060405162001dde38038062001dde8339810160408190526200003f9162000265565b8282828181846001600160a01b031663313ce5676040518163ffffffff1660e01b8152600401602060405180830381865afa15801562000083573d6000803e3d6000fd5b505050506040513d601f19601f82011682018060405250810190620000a99190620002ef565b6000620000b78482620003aa565b506001620000c68382620003aa565b5060ff81166080524660a052620000dc620000fc565b60c0525050506001600160a01b0390921660e05250620004f49350505050565b60007f8b73c3c69bb8fe3d512ecc4cf759cc79239f7b179b0ffacaa9a75d522b39400f600060405162000130919062000476565b6040805191829003822060208301939093528101919091527fc89efdaa54c0f20c7adf612882df0950f5a951637e0307cdcb4c672f298b8bc660608201524660808201523060a082015260c00160405160208183030381529060405280519060200120905090565b634e487b7160e01b600052604160045260246000fd5b600082601f830112620001c057600080fd5b81516001600160401b0380821115620001dd57620001dd62000198565b604051601f8301601f19908116603f0116810190828211818310171562000208576200020862000198565b816040528381526020925086838588010111156200022557600080fd5b600091505b838210156200024957858201830151818301840152908201906200022a565b838211156200025b5760008385830101525b9695505050505050565b6000806000606084860312156200027b57600080fd5b83516001600160a01b03811681146200029357600080fd5b60208501519093506001600160401b0380821115620002b157600080fd5b620002bf87838801620001ae565b93506040860151915080821115620002d657600080fd5b50620002e586828701620001ae565b9150509250925092565b6000602082840312156200030257600080fd5b815160ff811681146200031457600080fd5b9392505050565b600181811c908216806200033057607f821691505b6020821081036200035157634e487b7160e01b600052602260045260246000fd5b50919050565b601f821115620003a557600081815260208120601f850160051c81016020861015620003805750805b601f850160051c820191505b81811015620003a1578281556001016200038c565b5050505b505050565b81516001600160401b03811115620003c657620003c662000198565b620003de81620003d784546200031b565b8462000357565b602080601f831160018114620004165760008415620003fd5750858301515b600019600386901b1c1916600185901b178555620003a1565b600085815260208120601f198616915b82811015620004475788860151825594840194600190910190840162000426565b5085821015620004665787850151600019600388901b60f8161c191681555b5050505050600190811b01905550565b600080835462000486816200031b565b60018281168015620004a15760018114620004b757620004e8565b60ff1984168752821515830287019450620004e8565b8760005260208060002060005b85811015620004df5781548a820152908401908201620004c4565b50505082870194505b50929695505050505050565b60805160a05160c05160e05161188d62000551600039600081816102ba015281816104f301528181610908015281816109be01528181610c440152610e1b015260006108450152600061081501526000610279015261188d6000f3fe608060405234801561001057600080fd5b50600436106101da5760003560e01c806394bf804d11610104578063c63d75b6116100a2578063d905777e11610071578063d905777e14610445578063dd62ed3e1461047b578063ef8b30f7146104a6578063fc407ae7146104b957600080fd5b8063c63d75b614610301578063c6e6f5921461040a578063ce96cb771461041d578063d505accf1461043057600080fd5b8063b3d7f6b9116100de578063b3d7f6b9146103c8578063b460af94146103db578063ba087652146103ee578063bc368a8a1461040157600080fd5b806394bf804d1461039a57806395d89b41146103ad578063a9059cbb146103b557600080fd5b8063313ce5671161017c5780634cdad5061161014b5780634cdad506146103345780636e553f651461034757806370a082311461035a5780637ecebe001461037a57600080fd5b8063313ce567146102745780633644e515146102ad57806338d52e0f146102b5578063402d267d1461030157600080fd5b8063095ea7b3116101b8578063095ea7b3146102225780630a28a4771461024557806318160ddd1461025857806323b872dd1461026157600080fd5b806301e1d114146101df57806306fdde03146101fa57806307a2d13a1461020f575b600080fd5b6101e76104c2565b6040519081526020015b60405180910390f35b610202610578565b6040516101f1919061146d565b6101e761021d3660046114e0565b610606565b610235610230366004611522565b610633565b60405190151581526020016101f1565b6101e76102533660046114e0565b6106ad565b6101e760025481565b61023561026f36600461154c565b6106cd565b61029b7f000000000000000000000000000000000000000000000000000000000000000081565b60405160ff90911681526020016101f1565b6101e7610811565b6102dc7f000000000000000000000000000000000000000000000000000000000000000081565b60405173ffffffffffffffffffffffffffffffffffffffff90911681526020016101f1565b6101e761030f366004611588565b507fffffffffffffffffffffffffffffffffffffffffffffffffffffffffffffffff90565b6101e76103423660046114e0565b610867565b6101e76103553660046115a3565b610872565b6101e7610368366004611588565b60036020526000908152604090205481565b6101e7610388366004611588565b60056020526000908152604090205481565b6101e76103a83660046115a3565b610997565b610202610a4d565b6102356103c3366004611522565b610a5a565b6101e76103d63660046114e0565b610adf565b6101e76103e93660046115cf565b610afe565b6101e76103fc3660046115cf565b610c6b565b6101e760065481565b6101e76104183660046114e0565b610e42565b6101e761042b366004611588565b610e62565b61044361043e36600461160b565b610e91565b005b6101e7610453366004611588565b73ffffffffffffffffffffffffffffffffffffffff1660009081526003602052604090205490565b6101e761048936600461167e565b600460209081526000928352604080842090915290825290205481565b6101e76104b43660046114e0565b6111b0565b6101e760075481565b6040517f70a082310000000000000000000000000000000000000000000000000000000081523060048201526000907f000000000000000000000000000000000000000000000000000000000000000073ffffffffffffffffffffffffffffffffffffffff16906370a0823190602401602060405180830381865afa15801561054f573d6000803e3d6000fd5b505050506040513d601f19601f8201168201806040525081019061057391906116a8565b905090565b60008054610585906116c1565b80601f01602080910402602001604051908101604052809291908181526020018280546105b1906116c1565b80156105fe5780601f106105d3576101008083540402835291602001916105fe565b820191906000526020600020905b8154815290600101906020018083116105e157829003601f168201915b505050505081565b600254600090801561062a5761062561061d6104c2565b8490836111bb565b61062c565b825b9392505050565b33600081815260046020908152604080832073ffffffffffffffffffffffffffffffffffffffff8716808552925280832085905551919290917f8c5be1e5ebec7d5bd14f71427d1e84f3dd0314c0f7b2291e5b200ac8c7c3b9259061069b9086815260200190565b60405180910390a35060015b92915050565b600254600090801561062a57610625816106c56104c2565b8591906111e2565b73ffffffffffffffffffffffffffffffffffffffff831660009081526004602090815260408083203384529091528120547fffffffffffffffffffffffffffffffffffffffffffffffffffffffffffffffff81146107615761072f8382611743565b73ffffffffffffffffffffffffffffffffffffffff861660009081526004602090815260408083203384529091529020555b73ffffffffffffffffffffffffffffffffffffffff851660009081526003602052604081208054859290610796908490611743565b909155505073ffffffffffffffffffffffffffffffffffffffff808516600081815260036020526040908190208054870190555190918716907fddf252ad1be2c89b69c2b068fc378daa952ba7f163c4a11628f55a4df523b3ef906107fe9087815260200190565b60405180910390a3506001949350505050565b60007f0000000000000000000000000000000000000000000000000000000000000000461461084257610573611211565b507f000000000000000000000000000000000000000000000000000000000000000090565b60006106a782610606565b600061087d836111b0565b9050806000036108ee576040517f08c379a000000000000000000000000000000000000000000000000000000000815260206004820152600b60248201527f5a45524f5f53484152455300000000000000000000000000000000000000000060448201526064015b60405180910390fd5b61093073ffffffffffffffffffffffffffffffffffffffff7f0000000000000000000000000000000000000000000000000000000000000000163330866112ab565b61093a82826112f9565b604080518481526020810183905273ffffffffffffffffffffffffffffffffffffffff84169133917fdcbc1c05240f31ff3ad067ef1ee35ce4997762752e3a095284754544f4c709d7910160405180910390a36106a78382611372565b60006109a283610adf565b90506109e673ffffffffffffffffffffffffffffffffffffffff7f0000000000000000000000000000000000000000000000000000000000000000163330846112ab565b6109f082846112f9565b604080518281526020810185905273ffffffffffffffffffffffffffffffffffffffff84169133917fdcbc1c05240f31ff3ad067ef1ee35ce4997762752e3a095284754544f4c709d7910160405180910390a36106a78184611372565b60018054610585906116c1565b33600090815260036020526040812080548391908390610a7b908490611743565b909155505073ffffffffffffffffffffffffffffffffffffffff8316600081815260036020526040908190208054850190555133907fddf252ad1be2c89b69c2b068fc378daa952ba7f163c4a11628f55a4df523b3ef9061069b9086815260200190565b600254600090801561062a57610625610af66104c2565b8490836111e2565b6000610b09846106ad565b90503373ffffffffffffffffffffffffffffffffffffffff831614610bbe5773ffffffffffffffffffffffffffffffffffffffff821660009081526004602090815260408083203384529091529020547fffffffffffffffffffffffffffffffffffffffffffffffffffffffffffffffff8114610bbc57610b8a8282611743565b73ffffffffffffffffffffffffffffffffffffffff841660009081526004602090815260408083203384529091529020555b505b610bc8848261138b565b610bd2828261139b565b604080518581526020810183905273ffffffffffffffffffffffffffffffffffffffff808516929086169133917ffbde797d201c681b91056529119e0b02407c7bb96a4a2c75c01fc9667232c8db910160405180910390a461062c73ffffffffffffffffffffffffffffffffffffffff7f0000000000000000000000000000000000000000000000000000000000000000168486611429565b60003373ffffffffffffffffffffffffffffffffffffffff831614610d205773ffffffffffffffffffffffffffffffffffffffff821660009081526004602090815260408083203384529091529020547fffffffffffffffffffffffffffffffffffffffffffffffffffffffffffffffff8114610d1e57610cec8582611743565b73ffffffffffffffffffffffffffffffffffffffff841660009081526004602090815260408083203384529091529020555b505b610d2984610867565b905080600003610d95576040517f08c379a000000000000000000000000000000000000000000000000000000000815260206004820152600b60248201527f5a45524f5f41535345545300000000000000000000000000000000000000000060448201526064016108e5565b610d9f818561138b565b610da9828561139b565b604080518281526020810186905273ffffffffffffffffffffffffffffffffffffffff808516929086169133917ffbde797d201c681b91056529119e0b02407c7bb96a4a2c75c01fc9667232c8db910160405180910390a461062c73ffffffffffffffffffffffffffffffffffffffff7f0000000000000000000000000000000000000000000000000000000000000000168483611429565b600254600090801561062a5761062581610e5a6104c2565b8591906111bb565b73ffffffffffffffffffffffffffffffffffffffff81166000908152600360205260408120546106a790610606565b42841015610efb576040517f08c379a000000000000000000000000000000000000000000000000000000000815260206004820152601760248201527f5045524d49545f444541444c494e455f4558504952454400000000000000000060448201526064016108e5565b60006001610f07610811565b73ffffffffffffffffffffffffffffffffffffffff8a811660008181526005602090815260409182902080546001810190915582517f6e71edae12b1b97f4d1f60370fef10105fa2faae0126114a169c64845d6126c98184015280840194909452938d166060840152608083018c905260a083019390935260c08083018b90528151808403909101815260e0830190915280519201919091207f190100000000000000000000000000000000000000000000000000000000000061010083015261010282019290925261012281019190915261014201604080517fffffffffffffffffffffffffffffffffffffffffffffffffffffffffffffffe08184030181528282528051602091820120600084529083018083525260ff871690820152606081018590526080810184905260a0016020604051602081039080840390855afa158015611059573d6000803e3d6000fd5b50506040517fffffffffffffffffffffffffffffffffffffffffffffffffffffffffffffffe0015191505073ffffffffffffffffffffffffffffffffffffffff8116158015906110d457508773ffffffffffffffffffffffffffffffffffffffff168173ffffffffffffffffffffffffffffffffffffffff16145b61113a576040517f08c379a000000000000000000000000000000000000000000000000000000000815260206004820152600e60248201527f494e56414c49445f5349474e455200000000000000000000000000000000000060448201526064016108e5565b73ffffffffffffffffffffffffffffffffffffffff90811660009081526004602090815260408083208a8516808552908352928190208990555188815291928a16917f8c5be1e5ebec7d5bd14f71427d1e84f3dd0314c0f7b2291e5b200ac8c7c3b925910160405180910390a350505050505050565b60006106a782610e42565b60008260001904841183021582026111db5763ad251c276000526004601cfd5b5091020490565b60008260001904841183021582026112025763ad251c276000526004601cfd5b50910281810615159190040190565b60007f8b73c3c69bb8fe3d512ecc4cf759cc79239f7b179b0ffacaa9a75d522b39400f6000604051611243919061175a565b6040805191829003822060208301939093528101919091527fc89efdaa54c0f20c7adf612882df0950f5a951637e0307cdcb4c672f298b8bc660608201524660808201523060a082015260c00160405160208183030381529060405280519060200120905090565b6040516323b872dd600052836020528260405281606052602060006064601c6000895af13d1560016000511417166112eb57637939f4246000526004601cfd5b600060605260405250505050565b806002600082825461130b9190611830565b909155505073ffffffffffffffffffffffffffffffffffffffff82166000818152600360209081526040808320805486019055518481527fddf252ad1be2c89b69c2b068fc378daa952ba7f163c4a11628f55a4df523b3ef91015b60405180910390a35050565b6007805490600061138283611848565b91905055505050565b6006805490600061138283611848565b73ffffffffffffffffffffffffffffffffffffffff8216600090815260036020526040812080548392906113d0908490611743565b909155505060028054829003905560405181815260009073ffffffffffffffffffffffffffffffffffffffff8416907fddf252ad1be2c89b69c2b068fc378daa952ba7f163c4a11628f55a4df523b3ef90602001611366565b60405163a9059cbb6000528260205281604052602060006044601c6000885af13d156001600051141716611465576390b8ec186000526004601cfd5b604052505050565b600060208083528351808285015260005b8181101561149a5785810183015185820160400152820161147e565b818111156114ac576000604083870101525b50601f017fffffffffffffffffffffffffffffffffffffffffffffffffffffffffffffffe016929092016040019392505050565b6000602082840312156114f257600080fd5b5035919050565b803573ffffffffffffffffffffffffffffffffffffffff8116811461151d57600080fd5b919050565b6000806040838503121561153557600080fd5b61153e836114f9565b946020939093013593505050565b60008060006060848603121561156157600080fd5b61156a846114f9565b9250611578602085016114f9565b9150604084013590509250925092565b60006020828403121561159a57600080fd5b61062c826114f9565b600080604083850312156115b657600080fd5b823591506115c6602084016114f9565b90509250929050565b6000806000606084860312156115e457600080fd5b833592506115f4602085016114f9565b9150611602604085016114f9565b90509250925092565b600080600080600080600060e0888a03121561162657600080fd5b61162f886114f9565b965061163d602089016114f9565b95506040880135945060608801359350608088013560ff8116811461166157600080fd5b9699959850939692959460a0840135945060c09093013592915050565b6000806040838503121561169157600080fd5b61169a836114f9565b91506115c6602084016114f9565b6000602082840312156116ba57600080fd5b5051919050565b600181811c908216806116d557607f821691505b60208210810361170e577f4e487b7100000000000000000000000000000000000000000000000000000000600052602260045260246000fd5b50919050565b7f4e487b7100000000000000000000000000000000000000000000000000000000600052601160045260246000fd5b60008282101561175557611755611714565b500390565b600080835481600182811c91508083168061177657607f831692505b602080841082036117ae577f4e487b710000000000000000000000000000000000000000000000000000000086526022600452602486fd5b8180156117c257600181146117f557611822565b7fffffffffffffffffffffffffffffffffffffffffffffffffffffffffffffff0086168952841515850289019650611822565b60008a81526020902060005b8681101561181a5781548b820152908501908301611801565b505084890196505b509498975050505050505050565b6000821982111561184357611843611714565b500190565b60007fffffffffffffffffffffffffffffffffffffffffffffffffffffffffffffffff820361187957611879611714565b506001019056fea164736f6c634300080f000a",
    "linkReferences": {}
  },
  "methodIdentifiers": {
    "DOMAIN_SEPARATOR()": "3644e515",
    "afterDepositHookCalledCounter()": "fc407ae7",
    "allowance(address,address)": "dd62ed3e",
    "approve(address,uint256)": "095ea7b3",
    "asset()": "38d52e0f",
    "balanceOf(address)": "70a08231",
    "beforeWithdrawHookCalledCounter()": "bc368a8a",
    "convertToAssets(uint256)": "07a2d13a",
    "convertToShares(uint256)": "c6e6f592",
    "decimals()": "313ce567",
    "deposit(uint256,address)": "6e553f65",
    "maxDeposit(address)": "402d267d",
    "maxMint(address)": "c63d75b6",
    "maxRedeem(address)": "d905777e",
    "maxWithdraw(address)": "ce96cb77",
    "mint(uint256,address)": "94bf804d",
    "name()": "06fdde03",
    "nonces(address)": "7ecebe00",
    "permit(address,address,uint256,uint256,uint8,bytes32,bytes32)": "d505accf",
    "previewDeposit(uint256)": "ef8b30f7",
    "previewMint(uint256)": "b3d7f6b9",
    "previewRedeem(uint256)": "4cdad506",
    "previewWithdraw(uint256)": "0a28a477",
    "redeem(uint256,address,address)": "ba087652",
    "symbol()": "95d89b41",
    "totalAssets()": "01e1d114",
    "totalSupply()": "18160ddd",
    "transfer(address,uint256)": "a9059cbb",
    "transferFrom(address,address,uint256)": "23b872dd",
    "withdraw(uint256,address,address)": "b460af94"
  },
  "id": 53
}