{
  "abi": [
    {
      "anonymous": false,
      "inputs": [
        {
          "indexed": true,
          "internalType": "address",
          "name": "user",
          "type": "address"
        },
        {
          "indexed": true,
          "internalType": "address",
          "name": "ownerCandidate",
          "type": "address"
        }
      ],
      "name": "OwnerUpdateInitiated",
      "type": "event"
    },
    {
      "anonymous": false,
      "inputs": [
        {
          "indexed": true,
          "internalType": "address",
          "name": "user",
          "type": "address"
        },
        {
          "indexed": true,
          "internalType": "address",
          "name": "newOwner",
          "type": "address"
        }
      ],
      "name": "OwnerUpdated",
      "type": "event"
    },
    {
      "inputs": [],
      "name": "confirmOwner",
      "outputs": [],
      "stateMutability": "nonpayable",
      "type": "function"
    },
    {
      "inputs": [],
      "name": "flag",
      "outputs": [
        {
          "internalType": "bool",
          "name": "",
          "type": "bool"
        }
      ],
      "stateMutability": "view",
      "type": "function"
    },
    {
      "inputs": [],
      "name": "owner",
      "outputs": [
        {
          "internalType": "address",
          "name": "",
          "type": "address"
        }
      ],
      "stateMutability": "view",
      "type": "function"
    },
    {
      "inputs": [],
      "name": "renounceOwner",
      "outputs": [],
      "stateMutability": "nonpayable",
      "type": "function"
    },
    {
      "inputs": [
        {
          "internalType": "address",
          "name": "newOwner",
          "type": "address"
        }
      ],
      "name": "setOwner",
      "outputs": [],
      "stateMutability": "nonpayable",
      "type": "function"
    },
    {
      "inputs": [],
      "name": "updateFlag",
      "outputs": [],
      "stateMutability": "nonpayable",
      "type": "function"
    }
  ],
  "bytecode": {
    "object": "0x608060405234801561001057600080fd5b50600080546001600160a01b031916339081178255604051909182917f8292fce18fa69edf4db7b94ea2e58241df0ae57f97e0a6c9b29067028bf92d76908290a3506105fe806100616000396000f3fe608060405234801561001057600080fd5b50600436106100725760003560e01c8063890eba6811610050578063890eba681461009c5780638da5cb5b146100d7578063bd9b6d861461011c57600080fd5b806313af40351461007757806328c23a451461008c5780633a7104d114610094575b600080fd5b61008a6100853660046105b4565b610124565b005b61008a61021b565b61008a6102f0565b6001546100c2907501000000000000000000000000000000000000000000900460ff1681565b60405190151581526020015b60405180910390f35b6000546100f79073ffffffffffffffffffffffffffffffffffffffff1681565b60405173ffffffffffffffffffffffffffffffffffffffff90911681526020016100ce565b61008a6103b3565b60005473ffffffffffffffffffffffffffffffffffffffff1633146101aa576040517f08c379a000000000000000000000000000000000000000000000000000000000815260206004820152600c60248201527f554e415554484f52495a4544000000000000000000000000000000000000000060448201526064015b60405180910390fd5b600180547fffffffffffffffffffffffff00000000000000000000000000000000000000001673ffffffffffffffffffffffffffffffffffffffff831690811790915560405133907f365e8eca24e61548e99db9d948e4f9cf79224bcbf4fc81afe651e6e80921c87590600090a350565b60005473ffffffffffffffffffffffffffffffffffffffff16331461029c576040517f08c379a000000000000000000000000000000000000000000000000000000000815260206004820152600c60248201527f554e415554484f52495a4544000000000000000000000000000000000000000060448201526064016101a1565b600080547fffffffffffffffffffffffff000000000000000000000000000000000000000016815560405133907f8292fce18fa69edf4db7b94ea2e58241df0ae57f97e0a6c9b29067028bf92d76908390a3565b60005473ffffffffffffffffffffffffffffffffffffffff163314610371576040517f08c379a000000000000000000000000000000000000000000000000000000000815260206004820152600c60248201527f554e415554484f52495a4544000000000000000000000000000000000000000060448201526064016101a1565b600180547fffffffffffffffffffff00ffffffffffffffffffffffffffffffffffffffffff167501000000000000000000000000000000000000000000179055565b60015474010000000000000000000000000000000000000000900460ff16156104f25760005473ffffffffffffffffffffffffffffffffffffffff163314610457576040517f08c379a000000000000000000000000000000000000000000000000000000000815260206004820152600c60248201527f554e415554484f52495a4544000000000000000000000000000000000000000060448201526064016101a1565b600180547fffffffffffffffffffffff00ffffffffffffffffffffffffffffffffffffffff8116909155600080547fffffffffffffffffffffffff00000000000000000000000000000000000000001673ffffffffffffffffffffffffffffffffffffffff9092169182178155604051829133917f8292fce18fa69edf4db7b94ea2e58241df0ae57f97e0a6c9b29067028bf92d769190a350565b60015473ffffffffffffffffffffffffffffffffffffffff163314610573576040517f08c379a000000000000000000000000000000000000000000000000000000000815260206004820152600c60248201527f554e415554484f52495a4544000000000000000000000000000000000000000060448201526064016101a1565b600180547fffffffffffffffffffffff00ffffffffffffffffffffffffffffffffffffffff1674010000000000000000000000000000000000000000179055565b6000602082840312156105c657600080fd5b813573ffffffffffffffffffffffffffffffffffffffff811681146105ea57600080fd5b939250505056fea164736f6c6343000811000a",
    "linkReferences": {}
  },
  "methodIdentifiers": {
    "confirmOwner()": "bd9b6d86",
    "flag()": "890eba68",
    "owner()": "8da5cb5b",
    "renounceOwner()": "28c23a45",
    "setOwner(address)": "13af4035",
    "updateFlag()": "3a7104d1"
  },
  "id": 65
}