{
  "abi": [
    {
      "inputs": [],
      "name": "DivFailed",
      "type": "error"
    },
    {
      "inputs": [],
      "name": "DivWadFailed",
      "type": "error"
    },
    {
      "inputs": [],
      "name": "ExpOverflow",
      "type": "error"
    },
    {
      "inputs": [],
      "name": "FactorialOverflow",
      "type": "error"
    },
    {
      "inputs": [],
      "name": "LnWadUndefined",
      "type": "error"
    },
    {
      "inputs": [],
      "name": "Log2Undefined",
      "type": "error"
    },
    {
      "inputs": [],
      "name": "MulDivFailed",
      "type": "error"
    },
    {
      "inputs": [],
      "name": "MulWadFailed",
      "type": "error"
    },
    {
      "inputs": [
        {
          "internalType": "uint256",
          "name": "x",
          "type": "uint256"
        }
      ],
      "name": "factorial",
      "outputs": [
        {
          "internalType": "uint256",
          "name": "result",
          "type": "uint256"
        }
      ],
      "stateMutability": "pure",
      "type": "function"
    }
  ],
  "bytecode": {
    "object": "0x61018a61003a600b82828239805160001a60731461002d57634e487b7160e01b600052600060045260246000fd5b30600052607381538281f3fe73000000000000000000000000000000000000000030146080604052600436106100355760003560e01c8063837148341461003a575b600080fd5b61004d610048366004610164565b61005f565b60405190815260200160405180910390f35b6000600b82101561009a5750623fffff7e0375f0016260009d80004ec0002d00001e0000180000180000200000400001601683021c16919050565b60208210156100e0575062375f005b7fffffffffffffffffffffffffffffffffffffffffffffffffffffffffffffffff82019190810290600a036001016100a957919050565b603a82101561013257506e01956ad0aae33a4560c5cd2c0000005b7fffffffffffffffffffffffffffffffffffffffffffffffffffffffffffffffff82019190810290601f036001016100fb57919050565b6040517faba0f2a200000000000000000000000000000000000000000000000000000000815260040160405180910390fd5b60006020828403121561017657600080fd5b503591905056fea164736f6c634300080f000a",
    "linkReferences": {}
  },
  "methodIdentifiers": {
    "factorial(uint256)": "83714834"
  },
  "id": 74
}