{
  "abi": [
    {
      "inputs": [],
      "name": "CustomError",
      "type": "error"
    },
    {
      "inputs": [
        {
          "internalType": "bytes[]",
          "name": "data",
          "type": "bytes[]"
        }
      ],
      "name": "multicall",
      "outputs": [
        {
          "internalType": "bytes[]",
          "name": "results",
          "type": "bytes[]"
        }
      ],
      "stateMutability": "payable",
      "type": "function"
    },
    {
      "inputs": [
        {
          "internalType": "bytes[]",
          "name": "data",
          "type": "bytes[]"
        }
      ],
      "name": "multicallOriginal",
      "outputs": [
        {
          "internalType": "bytes[]",
          "name": "results",
          "type": "bytes[]"
        }
      ],
      "stateMutability": "payable",
      "type": "function"
    },
    {
      "inputs": [],
      "name": "paid",
      "outputs": [
        {
          "internalType": "uint256",
          "name": "",
          "type": "uint256"
        }
      ],
      "stateMutability": "view",
      "type": "function"
    },
    {
      "inputs": [],
      "name": "pay",
      "outputs": [],
      "stateMutability": "payable",
      "type": "function"
    },
    {
      "inputs": [],
      "name": "returnsSender",
      "outputs": [
        {
          "internalType": "address",
          "name": "",
          "type": "address"
        }
      ],
      "stateMutability": "view",
      "type": "function"
    },
    {
      "inputs": [
        {
          "internalType": "string",
          "name": "s",
          "type": "string"
        }
      ],
      "name": "returnsString",
      "outputs": [
        {
          "internalType": "string",
          "name": "",
          "type": "string"
        }
      ],
      "stateMutability": "pure",
      "type": "function"
    },
    {
      "inputs": [
        {
          "internalType": "uint256",
          "name": "a",
          "type": "uint256"
        },
        {
          "internalType": "uint256",
          "name": "b",
          "type": "uint256"
        }
      ],
      "name": "returnsTuple",
      "outputs": [
        {
          "components": [
            {
              "internalType": "uint256",
              "name": "a",
              "type": "uint256"
            },
            {
              "internalType": "uint256",
              "name": "b",
              "type": "uint256"
            }
          ],
          "internalType": "struct MockMulticallable.Tuple",
          "name": "tuple",
          "type": "tuple"
        }
      ],
      "stateMutability": "pure",
      "type": "function"
    },
    {
      "inputs": [],
      "name": "revertsWithCustomError",
      "outputs": [],
      "stateMutability": "pure",
      "type": "function"
    },
    {
      "inputs": [],
      "name": "revertsWithNothing",
      "outputs": [],
      "stateMutability": "pure",
      "type": "function"
    },
    {
      "inputs": [
        {
          "internalType": "string",
          "name": "e",
          "type": "string"
        }
      ],
      "name": "revertsWithString",
      "outputs": [],
      "stateMutability": "pure",
      "type": "function"
    }
  ],
  "bytecode": {
    "object": "0x608060405234801561001057600080fd5b50610977806100206000396000f3fe6080604052600436106100b15760003560e01c8063295b4e171161006957806392a49cb11161004e57806392a49cb1146101d1578063ac9650d8146101e6578063c7f554d8146101f957600080fd5b8063295b4e171461018d578063468e8f31146101b157600080fd5b806310d990cb1161009a57806310d990cb146100fa5780631b9265b81461012757806325793ff71461013157600080fd5b806304420e96146100b65780630fbbaefb146100df575b600080fd5b6100c96100c43660046104ba565b61020e565b6040516100d691906105a9565b60405180910390f35b3480156100eb57600080fd5b506040513381526020016100d6565b34801561010657600080fd5b5061011a610115366004610629565b61037e565b6040516100d69190610689565b61012f6103c0565b005b34801561013d57600080fd5b5061017261014c3660046106a3565b604080518082018252600080825260209182015281518083019092529281529182015290565b604080518251815260209283015192810192909252016100d6565b34801561019957600080fd5b506101a360005481565b6040519081526020016100d6565b3480156101bd57600080fd5b5061012f6101cc366004610789565b6103d8565b3480156101dd57600080fd5b5061012f600080fd5b6100c96101f43660046104ba565b61040c565b34801561020557600080fd5b5061012f610488565b60608167ffffffffffffffff811115610229576102296106c5565b60405190808252806020026020018201604052801561025c57816020015b60608152602001906001900390816102475790505b50905060005b82811015610377576000803086868581811061028057610280610809565b90506020028101906102929190610838565b6040516102a09291906108a4565b600060405180830381855af49150503d80600081146102db576040519150601f19603f3d011682016040523d82523d6000602084013e6102e0565b606091505b50915091508161034f576044815110156102f957600080fd5b6004810190508080602001905181019061031391906108b4565b6040517f08c379a00000000000000000000000000000000000000000000000000000000081526004016103469190610689565b60405180910390fd5b8084848151811061036257610362610809565b60209081029190910101525050600101610262565b5092915050565b606082828080601f0160208091040260200160405190810160405280939291908181526020018383808284376000920191909152509293505050505b92915050565b346000808282546103d1919061092b565b9091555050565b806040517f08c379a00000000000000000000000000000000000000000000000000000000081526004016103469190610689565b606081156103ba5750604051818152602001600582901b808483378101805b825185018035602082018337600080823584305af461044e573d6000803e3d6000fd5b508083526020830192503d81523d6000602083013e3d01603f0167ffffffffffffffe01681831061042b5760408051919052949350505050565b6040517f09caebf300000000000000000000000000000000000000000000000000000000815260040160405180910390fd5b600080602083850312156104cd57600080fd5b823567ffffffffffffffff808211156104e557600080fd5b818501915085601f8301126104f957600080fd5b81358181111561050857600080fd5b8660208260051b850101111561051d57600080fd5b60209290920196919550909350505050565b60005b8381101561054a578181015183820152602001610532565b83811115610559576000848401525b50505050565b6000815180845261057781602086016020860161052f565b601f017fffffffffffffffffffffffffffffffffffffffffffffffffffffffffffffffe0169290920160200192915050565b6000602080830181845280855180835260408601915060408160051b870101925083870160005b8281101561061c577fffffffffffffffffffffffffffffffffffffffffffffffffffffffffffffffc088860301845261060a85835161055f565b945092850192908501906001016105d0565b5092979650505050505050565b6000806020838503121561063c57600080fd5b823567ffffffffffffffff8082111561065457600080fd5b818501915085601f83011261066857600080fd5b81358181111561067757600080fd5b86602082850101111561051d57600080fd5b60208152600061069c602083018461055f565b9392505050565b600080604083850312156106b657600080fd5b50508035926020909101359150565b7f4e487b7100000000000000000000000000000000000000000000000000000000600052604160045260246000fd5b604051601f82017fffffffffffffffffffffffffffffffffffffffffffffffffffffffffffffffe016810167ffffffffffffffff8111828210171561073b5761073b6106c5565b604052919050565b600067ffffffffffffffff82111561075d5761075d6106c5565b50601f017fffffffffffffffffffffffffffffffffffffffffffffffffffffffffffffffe01660200190565b60006020828403121561079b57600080fd5b813567ffffffffffffffff8111156107b257600080fd5b8201601f810184136107c357600080fd5b80356107d66107d182610743565b6106f4565b8181528560208385010111156107eb57600080fd5b81602084016020830137600091810160200191909152949350505050565b7f4e487b7100000000000000000000000000000000000000000000000000000000600052603260045260246000fd5b60008083357fffffffffffffffffffffffffffffffffffffffffffffffffffffffffffffffe184360301811261086d57600080fd5b83018035915067ffffffffffffffff82111561088857600080fd5b60200191503681900382131561089d57600080fd5b9250929050565b8183823760009101908152919050565b6000602082840312156108c657600080fd5b815167ffffffffffffffff8111156108dd57600080fd5b8201601f810184136108ee57600080fd5b80516108fc6107d182610743565b81815285602083850101111561091157600080fd5b61092282602083016020860161052f565b95945050505050565b60008219821115610965577f4e487b7100000000000000000000000000000000000000000000000000000000600052601160045260246000fd5b50019056fea164736f6c634300080f000a",
    "linkReferences": {}
  },
  "methodIdentifiers": {
    "multicall(bytes[])": "ac9650d8",
    "multicallOriginal(bytes[])": "04420e96",
    "paid()": "295b4e17",
    "pay()": "1b9265b8",
    "returnsSender()": "0fbbaefb",
    "returnsString(string)": "10d990cb",
    "returnsTuple(uint256,uint256)": "25793ff7",
    "revertsWithCustomError()": "c7f554d8",
    "revertsWithNothing()": "92a49cb1",
    "revertsWithString(string)": "468e8f31"
  },
  "id": 39
}