{
  "abi": [
    {
      "inputs": [
        {
          "internalType": "string",
          "name": "_name",
          "type": "string"
        },
        {
          "internalType": "string",
          "name": "_symbol",
          "type": "string"
        }
      ],
      "stateMutability": "nonpayable",
      "type": "constructor"
    },
    {
      "anonymous": false,
      "inputs": [
        {
          "indexed": true,
          "internalType": "address",
          "name": "owner",
          "type": "address"
        },
        {
          "indexed": true,
          "internalType": "address",
          "name": "spender",
          "type": "address"
        },
        {
          "indexed": true,
          "internalType": "uint256",
          "name": "id",
          "type": "uint256"
        }
      ],
      "name": "Approval",
      "type": "event"
    },
    {
      "anonymous": false,
      "inputs": [
        {
          "indexed": true,
          "internalType": "address",
          "name": "owner",
          "type": "address"
        },
        {
          "indexed": true,
          "internalType": "address",
          "name": "operator",
          "type": "address"
        },
        {
          "indexed": false,
          "internalType": "bool",
          "name": "approved",
          "type": "bool"
        }
      ],
      "name": "ApprovalForAll",
      "type": "event"
    },
    {
      "anonymous": false,
      "inputs": [
        {
          "indexed": true,
          "internalType": "address",
          "name": "from",
          "type": "address"
        },
        {
          "indexed": true,
          "internalType": "address",
          "name": "to",
          "type": "address"
        },
        {
          "indexed": true,
          "internalType": "uint256",
          "name": "id",
          "type": "uint256"
        }
      ],
      "name": "Transfer",
      "type": "event"
    },
    {
      "inputs": [
        {
          "internalType": "address",
          "name": "spender",
          "type": "address"
        },
        {
          "internalType": "uint256",
          "name": "id",
          "type": "uint256"
        }
      ],
      "name": "approve",
      "outputs": [],
      "stateMutability": "nonpayable",
      "type": "function"
    },
    {
      "inputs": [
        {
          "internalType": "address",
          "name": "owner",
          "type": "address"
        }
      ],
      "name": "balanceOf",
      "outputs": [
        {
          "internalType": "uint256",
          "name": "",
          "type": "uint256"
        }
      ],
      "stateMutability": "view",
      "type": "function"
    },
    {
      "inputs": [
        {
          "internalType": "uint256",
          "name": "tokenId",
          "type": "uint256"
        }
      ],
      "name": "burn",
      "outputs": [],
      "stateMutability": "nonpayable",
      "type": "function"
    },
    {
      "inputs": [
        {
          "internalType": "uint256",
          "name": "",
          "type": "uint256"
        }
      ],
      "name": "getApproved",
      "outputs": [
        {
          "internalType": "address",
          "name": "",
          "type": "address"
        }
      ],
      "stateMutability": "view",
      "type": "function"
    },
    {
      "inputs": [
        {
          "internalType": "address",
          "name": "",
          "type": "address"
        },
        {
          "internalType": "address",
          "name": "",
          "type": "address"
        }
      ],
      "name": "isApprovedForAll",
      "outputs": [
        {
          "internalType": "bool",
          "name": "",
          "type": "bool"
        }
      ],
      "stateMutability": "view",
      "type": "function"
    },
    {
      "inputs": [
        {
          "internalType": "address",
          "name": "to",
          "type": "address"
        },
        {
          "internalType": "uint256",
          "name": "tokenId",
          "type": "uint256"
        }
      ],
      "name": "mint",
      "outputs": [],
      "stateMutability": "nonpayable",
      "type": "function"
    },
    {
      "inputs": [],
      "name": "name",
      "outputs": [
        {
          "internalType": "string",
          "name": "",
          "type": "string"
        }
      ],
      "stateMutability": "view",
      "type": "function"
    },
    {
      "inputs": [
        {
          "internalType": "uint256",
          "name": "id",
          "type": "uint256"
        }
      ],
      "name": "ownerOf",
      "outputs": [
        {
          "internalType": "address",
          "name": "owner",
          "type": "address"
        }
      ],
      "stateMutability": "view",
      "type": "function"
    },
    {
      "inputs": [
        {
          "internalType": "address",
          "name": "to",
          "type": "address"
        },
        {
          "internalType": "uint256",
          "name": "tokenId",
          "type": "uint256"
        },
        {
          "internalType": "bytes",
          "name": "data",
          "type": "bytes"
        }
      ],
      "name": "safeMint",
      "outputs": [],
      "stateMutability": "nonpayable",
      "type": "function"
    },
    {
      "inputs": [
        {
          "internalType": "address",
          "name": "to",
          "type": "address"
        },
        {
          "internalType": "uint256",
          "name": "tokenId",
          "type": "uint256"
        }
      ],
      "name": "safeMint",
      "outputs": [],
      "stateMutability": "nonpayable",
      "type": "function"
    },
    {
      "inputs": [
        {
          "internalType": "address",
          "name": "from",
          "type": "address"
        },
        {
          "internalType": "address",
          "name": "to",
          "type": "address"
        },
        {
          "internalType": "uint256",
          "name": "id",
          "type": "uint256"
        }
      ],
      "name": "safeTransferFrom",
      "outputs": [],
      "stateMutability": "nonpayable",
      "type": "function"
    },
    {
      "inputs": [
        {
          "internalType": "address",
          "name": "from",
          "type": "address"
        },
        {
          "internalType": "address",
          "name": "to",
          "type": "address"
        },
        {
          "internalType": "uint256",
          "name": "id",
          "type": "uint256"
        },
        {
          "internalType": "bytes",
          "name": "data",
          "type": "bytes"
        }
      ],
      "name": "safeTransferFrom",
      "outputs": [],
      "stateMutability": "nonpayable",
      "type": "function"
    },
    {
      "inputs": [
        {
          "internalType": "address",
          "name": "operator",
          "type": "address"
        },
        {
          "internalType": "bool",
          "name": "approved",
          "type": "bool"
        }
      ],
      "name": "setApprovalForAll",
      "outputs": [],
      "stateMutability": "nonpayable",
      "type": "function"
    },
    {
      "inputs": [
        {
          "internalType": "bytes4",
          "name": "interfaceId",
          "type": "bytes4"
        }
      ],
      "name": "supportsInterface",
      "outputs": [
        {
          "internalType": "bool",
          "name": "",
          "type": "bool"
        }
      ],
      "stateMutability": "view",
      "type": "function"
    },
    {
      "inputs": [],
      "name": "symbol",
      "outputs": [
        {
          "internalType": "string",
          "name": "",
          "type": "string"
        }
      ],
      "stateMutability": "view",
      "type": "function"
    },
    {
      "inputs": [
        {
          "internalType": "uint256",
          "name": "",
          "type": "uint256"
        }
      ],
      "name": "tokenURI",
      "outputs": [
        {
          "internalType": "string",
          "name": "",
          "type": "string"
        }
      ],
      "stateMutability": "pure",
      "type": "function"
    },
    {
      "inputs": [],
      "name": "totalSupply",
      "outputs": [
        {
          "internalType": "uint256",
          "name": "",
          "type": "uint256"
        }
      ],
      "stateMutability": "view",
      "type": "function"
    },
    {
      "inputs": [
        {
          "internalType": "address",
          "name": "from",
          "type": "address"
        },
        {
          "internalType": "address",
          "name": "to",
          "type": "address"
        },
        {
          "internalType": "uint256",
          "name": "id",
          "type": "uint256"
        }
      ],
      "name": "transferFrom",
      "outputs": [],
      "stateMutability": "nonpayable",
      "type": "function"
    }
  ],
  "bytecode": {
    "object": "0x60806040523480156200001157600080fd5b5060405162001a5538038062001a55833981016040819052620000349162000123565b818160006200004483826200021c565b5060016200005382826200021c565b5050505050620002e8565b634e487b7160e01b600052604160045260246000fd5b600082601f8301126200008657600080fd5b81516001600160401b0380821115620000a357620000a36200005e565b604051601f8301601f19908116603f01168101908282118183101715620000ce57620000ce6200005e565b81604052838152602092508683858801011115620000eb57600080fd5b600091505b838210156200010f5785820183015181830184015290820190620000f0565b600093810190920192909252949350505050565b600080604083850312156200013757600080fd5b82516001600160401b03808211156200014f57600080fd5b6200015d8683870162000074565b935060208501519150808211156200017457600080fd5b50620001838582860162000074565b9150509250929050565b600181811c90821680620001a257607f821691505b602082108103620001c357634e487b7160e01b600052602260045260246000fd5b50919050565b601f8211156200021757600081815260208120601f850160051c81016020861015620001f25750805b601f850160051c820191505b818110156200021357828155600101620001fe565b5050505b505050565b81516001600160401b038111156200023857620002386200005e565b62000250816200024984546200018d565b84620001c9565b602080601f8311600181146200028857600084156200026f5750858301515b600019600386901b1c1916600185901b17855562000213565b600085815260208120601f198616915b82811015620002b95788860151825594840194600190910190840162000298565b5085821015620002d85787850151600019600388901b60f8161c191681555b5050505050600190811b01905550565b61175d80620002f86000396000f3fe608060405234801561001057600080fd5b50600436106101365760003560e01c80636352211e116100b2578063a144819411610081578063b88d4fde11610066578063b88d4fde146102b2578063c87b56dd146102c5578063e985e9c5146102d957600080fd5b8063a14481941461028c578063a22cb4651461029f57600080fd5b80636352211e1461024b57806370a082311461025e5780638832e6e31461027157806395d89b411461028457600080fd5b806318160ddd1161010957806340c10f19116100ee57806340c10f191461021257806342842e0e1461022557806342966c681461023857600080fd5b806318160ddd146101e857806323b872dd146101ff57600080fd5b806301ffc9a71461013b57806306fdde0314610163578063081812fc14610178578063095ea7b3146101d3575b600080fd5b61014e61014936600461129d565b610307565b60405190151581526020015b60405180910390f35b61016b6103ec565b60405161015a9190611325565b6101ae610186366004611338565b60046020526000908152604090205473ffffffffffffffffffffffffffffffffffffffff1681565b60405173ffffffffffffffffffffffffffffffffffffffff909116815260200161015a565b6101e66101e1366004611375565b61047a565b005b6101f160065481565b60405190815260200161015a565b6101e661020d36600461139f565b6105c9565b6101e6610220366004611375565b610890565b6101e661023336600461139f565b6108a7565b6101e6610246366004611338565b610a12565b6101ae610259366004611338565b610a46565b6101f161026c3660046113db565b610ad7565b6101e661027f366004611425565b610b7f565b61016b610b98565b6101e661029a366004611375565b610ba5565b6101e66102ad36600461150e565b610baf565b6101e66102c036600461154a565b610c46565b61016b6102d3366004611338565b50606090565b61014e6102e73660046115e5565b600560209081526000928352604080842090915290825290205460ff1681565b60007f01ffc9a7000000000000000000000000000000000000000000000000000000007fffffffff000000000000000000000000000000000000000000000000000000008316148061039a57507f80ac58cd000000000000000000000000000000000000000000000000000000007fffffffff000000000000000000000000000000000000000000000000000000008316145b806103e657507f5b5e139f000000000000000000000000000000000000000000000000000000007fffffffff000000000000000000000000000000000000000000000000000000008316145b92915050565b600080546103f990611618565b80601f016020809104026020016040519081016040528092919081815260200182805461042590611618565b80156104725780601f1061044757610100808354040283529160200191610472565b820191906000526020600020905b81548152906001019060200180831161045557829003601f168201915b505050505081565b60008181526002602052604090205473ffffffffffffffffffffffffffffffffffffffff16338114806104dd575073ffffffffffffffffffffffffffffffffffffffff8116600090815260056020908152604080832033845290915290205460ff165b610548576040517f08c379a000000000000000000000000000000000000000000000000000000000815260206004820152600e60248201527f4e4f545f415554484f52495a454400000000000000000000000000000000000060448201526064015b60405180910390fd5b60008281526004602052604080822080547fffffffffffffffffffffffff00000000000000000000000000000000000000001673ffffffffffffffffffffffffffffffffffffffff87811691821790925591518593918516917f8c5be1e5ebec7d5bd14f71427d1e84f3dd0314c0f7b2291e5b200ac8c7c3b92591a4505050565b60008181526002602052604090205473ffffffffffffffffffffffffffffffffffffffff848116911614610659576040517f08c379a000000000000000000000000000000000000000000000000000000000815260206004820152600a60248201527f57524f4e475f46524f4d00000000000000000000000000000000000000000000604482015260640161053f565b73ffffffffffffffffffffffffffffffffffffffff82166106d6576040517f08c379a000000000000000000000000000000000000000000000000000000000815260206004820152601160248201527f494e56414c49445f524543495049454e54000000000000000000000000000000604482015260640161053f565b3373ffffffffffffffffffffffffffffffffffffffff8416148061072a575073ffffffffffffffffffffffffffffffffffffffff8316600090815260056020908152604080832033845290915290205460ff165b80610758575060008181526004602052604090205473ffffffffffffffffffffffffffffffffffffffff1633145b6107be576040517f08c379a000000000000000000000000000000000000000000000000000000000815260206004820152600e60248201527f4e4f545f415554484f52495a4544000000000000000000000000000000000000604482015260640161053f565b73ffffffffffffffffffffffffffffffffffffffff808416600081815260036020908152604080832080547fffffffffffffffffffffffffffffffffffffffffffffffffffffffffffffffff019055938616808352848320805460010190558583526002825284832080547fffffffffffffffffffffffff00000000000000000000000000000000000000009081168317909155600490925284832080549092169091559251849392917fddf252ad1be2c89b69c2b068fc378daa952ba7f163c4a11628f55a4df523b3ef91a4505050565b61089a8282610da0565b5050600680546001019055565b6108b28383836105c9565b73ffffffffffffffffffffffffffffffffffffffff82163b15806109a757506040517f150b7a020000000000000000000000000000000000000000000000000000000080825233600483015273ffffffffffffffffffffffffffffffffffffffff858116602484015260448301849052608060648401526000608484015290919084169063150b7a029060a4015b6020604051808303816000875af115801561095f573d6000803e3d6000fd5b505050506040513d601f19601f82011682018060405250810190610983919061166b565b7fffffffff0000000000000000000000000000000000000000000000000000000016145b610a0d576040517f08c379a000000000000000000000000000000000000000000000000000000000815260206004820152601060248201527f554e534146455f524543495049454e5400000000000000000000000000000000604482015260640161053f565b505050565b610a1b81610f39565b50600680547fffffffffffffffffffffffffffffffffffffffffffffffffffffffffffffffff019055565b60008181526002602052604090205473ffffffffffffffffffffffffffffffffffffffff1680610ad2576040517f08c379a000000000000000000000000000000000000000000000000000000000815260206004820152600a60248201527f4e4f545f4d494e54454400000000000000000000000000000000000000000000604482015260640161053f565b919050565b600073ffffffffffffffffffffffffffffffffffffffff8216610b56576040517f08c379a000000000000000000000000000000000000000000000000000000000815260206004820152600c60248201527f5a45524f5f414444524553530000000000000000000000000000000000000000604482015260640161053f565b5073ffffffffffffffffffffffffffffffffffffffff1660009081526003602052604090205490565b610b8a838383611083565b505060068054600101905550565b600180546103f990611618565b61089a8282611107565b33600081815260056020908152604080832073ffffffffffffffffffffffffffffffffffffffff87168085529083529281902080547fffffffffffffffffffffffffffffffffffffffffffffffffffffffffffffff001686151590811790915590519081529192917f17307eab39ab6107e8899845ad3d59bd9653f200f220920489ca2b5937696c31910160405180910390a35050565b610c518585856105c9565b73ffffffffffffffffffffffffffffffffffffffff84163b1580610d3357506040517f150b7a02000000000000000000000000000000000000000000000000000000008082529073ffffffffffffffffffffffffffffffffffffffff86169063150b7a0290610ccc9033908a90899089908990600401611688565b6020604051808303816000875af1158015610ceb573d6000803e3d6000fd5b505050506040513d601f19601f82011682018060405250810190610d0f919061166b565b7fffffffff0000000000000000000000000000000000000000000000000000000016145b610d99576040517f08c379a000000000000000000000000000000000000000000000000000000000815260206004820152601060248201527f554e534146455f524543495049454e5400000000000000000000000000000000604482015260640161053f565b5050505050565b73ffffffffffffffffffffffffffffffffffffffff8216610e1d576040517f08c379a000000000000000000000000000000000000000000000000000000000815260206004820152601160248201527f494e56414c49445f524543495049454e54000000000000000000000000000000604482015260640161053f565b60008181526002602052604090205473ffffffffffffffffffffffffffffffffffffffff1615610ea9576040517f08c379a000000000000000000000000000000000000000000000000000000000815260206004820152600e60248201527f414c52454144595f4d494e544544000000000000000000000000000000000000604482015260640161053f565b73ffffffffffffffffffffffffffffffffffffffff8216600081815260036020908152604080832080546001019055848352600290915280822080547fffffffffffffffffffffffff0000000000000000000000000000000000000000168417905551839291907fddf252ad1be2c89b69c2b068fc378daa952ba7f163c4a11628f55a4df523b3ef908290a45050565b60008181526002602052604090205473ffffffffffffffffffffffffffffffffffffffff1680610fc5576040517f08c379a000000000000000000000000000000000000000000000000000000000815260206004820152600a60248201527f4e4f545f4d494e54454400000000000000000000000000000000000000000000604482015260640161053f565b73ffffffffffffffffffffffffffffffffffffffff8116600081815260036020908152604080832080547fffffffffffffffffffffffffffffffffffffffffffffffffffffffffffffffff0190558583526002825280832080547fffffffffffffffffffffffff000000000000000000000000000000000000000090811690915560049092528083208054909216909155518492907fddf252ad1be2c89b69c2b068fc378daa952ba7f163c4a11628f55a4df523b3ef908390a45050565b61108d8383610da0565b73ffffffffffffffffffffffffffffffffffffffff83163b15806109a757506040517f150b7a02000000000000000000000000000000000000000000000000000000008082529073ffffffffffffffffffffffffffffffffffffffff85169063150b7a029061094090339060009088908890600401611707565b6111118282610da0565b73ffffffffffffffffffffffffffffffffffffffff82163b158061120257506040517f150b7a0200000000000000000000000000000000000000000000000000000000808252336004830152600060248301819052604483018490526080606484015260848301529073ffffffffffffffffffffffffffffffffffffffff84169063150b7a029060a4016020604051808303816000875af11580156111ba573d6000803e3d6000fd5b505050506040513d601f19601f820116820180604052508101906111de919061166b565b7fffffffff0000000000000000000000000000000000000000000000000000000016145b611268576040517f08c379a000000000000000000000000000000000000000000000000000000000815260206004820152601060248201527f554e534146455f524543495049454e5400000000000000000000000000000000604482015260640161053f565b5050565b7fffffffff000000000000000000000000000000000000000000000000000000008116811461129a57600080fd5b50565b6000602082840312156112af57600080fd5b81356112ba8161126c565b9392505050565b6000815180845260005b818110156112e7576020818501810151868301820152016112cb565b5060006020828601015260207fffffffffffffffffffffffffffffffffffffffffffffffffffffffffffffffe0601f83011685010191505092915050565b6020815260006112ba60208301846112c1565b60006020828403121561134a57600080fd5b5035919050565b803573ffffffffffffffffffffffffffffffffffffffff81168114610ad257600080fd5b6000806040838503121561138857600080fd5b61139183611351565b946020939093013593505050565b6000806000606084860312156113b457600080fd5b6113bd84611351565b92506113cb60208501611351565b9150604084013590509250925092565b6000602082840312156113ed57600080fd5b6112ba82611351565b7f4e487b7100000000000000000000000000000000000000000000000000000000600052604160045260246000fd5b60008060006060848603121561143a57600080fd5b61144384611351565b925060208401359150604084013567ffffffffffffffff8082111561146757600080fd5b818601915086601f83011261147b57600080fd5b81358181111561148d5761148d6113f6565b604051601f82017fffffffffffffffffffffffffffffffffffffffffffffffffffffffffffffffe0908116603f011681019083821181831017156114d3576114d36113f6565b816040528281528960208487010111156114ec57600080fd5b8260208601602083013760006020848301015280955050505050509250925092565b6000806040838503121561152157600080fd5b61152a83611351565b91506020830135801515811461153f57600080fd5b809150509250929050565b60008060008060006080868803121561156257600080fd5b61156b86611351565b945061157960208701611351565b935060408601359250606086013567ffffffffffffffff8082111561159d57600080fd5b818801915088601f8301126115b157600080fd5b8135818111156115c057600080fd5b8960208285010111156115d257600080fd5b9699959850939650602001949392505050565b600080604083850312156115f857600080fd5b61160183611351565b915061160f60208401611351565b90509250929050565b600181811c9082168061162c57607f821691505b602082108103611665577f4e487b7100000000000000000000000000000000000000000000000000000000600052602260045260246000fd5b50919050565b60006020828403121561167d57600080fd5b81516112ba8161126c565b600073ffffffffffffffffffffffffffffffffffffffff808816835280871660208401525084604083015260806060830152826080830152828460a0840137600060a0848401015260a07fffffffffffffffffffffffffffffffffffffffffffffffffffffffffffffffe0601f85011683010190509695505050505050565b600073ffffffffffffffffffffffffffffffffffffffff80871683528086166020840152508360408301526080606083015261174660808301846112c1565b969550505050505056fea164736f6c6343000811000a",
    "linkReferences": {}
  },
  "methodIdentifiers": {
    "approve(address,uint256)": "095ea7b3",
    "balanceOf(address)": "70a08231",
    "burn(uint256)": "42966c68",
    "getApproved(uint256)": "081812fc",
    "isApprovedForAll(address,address)": "e985e9c5",
    "mint(address,uint256)": "40c10f19",
    "name()": "06fdde03",
    "ownerOf(uint256)": "6352211e",
    "safeMint(address,uint256)": "a1448194",
    "safeMint(address,uint256,bytes)": "8832e6e3",
    "safeTransferFrom(address,address,uint256)": "42842e0e",
    "safeTransferFrom(address,address,uint256,bytes)": "b88d4fde",
    "setApprovalForAll(address,bool)": "a22cb465",
    "supportsInterface(bytes4)": "01ffc9a7",
    "symbol()": "95d89b41",
    "tokenURI(uint256)": "c87b56dd",
    "totalSupply()": "18160ddd",
    "transferFrom(address,address,uint256)": "23b872dd"
  },
  "id": 61
}