{
  "abi": [
    {
      "inputs": [],
      "name": "CustomError",
      "type": "error"
    },
    {
      "inputs": [
        {
          "internalType": "bytes[]",
          "name": "data",
          "type": "bytes[]"
        }
      ],
      "name": "multicall",
      "outputs": [
        {
          "internalType": "bytes[]",
          "name": "results",
          "type": "bytes[]"
        }
      ],
      "stateMutability": "nonpayable",
      "type": "function"
    },
    {
      "inputs": [
        {
          "internalType": "bytes[]",
          "name": "data",
          "type": "bytes[]"
        }
      ],
      "name": "multicallOriginal",
      "outputs": [
        {
          "internalType": "bytes[]",
          "name": "results",
          "type": "bytes[]"
        }
      ],
      "stateMutability": "payable",
      "type": "function"
    },
    {
      "inputs": [],
      "name": "returnsSender",
      "outputs": [
        {
          "internalType": "address",
          "name": "",
          "type": "address"
        }
      ],
      "stateMutability": "view",
      "type": "function"
    },
    {
      "inputs": [
        {
          "internalType": "string",
          "name": "s",
          "type": "string"
        }
      ],
      "name": "returnsString",
      "outputs": [
        {
          "internalType": "string",
          "name": "",
          "type": "string"
        }
      ],
      "stateMutability": "pure",
      "type": "function"
    },
    {
      "inputs": [
        {
          "internalType": "uint256",
          "name": "a",
          "type": "uint256"
        },
        {
          "internalType": "uint256",
          "name": "b",
          "type": "uint256"
        }
      ],
      "name": "returnsTuple",
      "outputs": [
        {
          "components": [
            {
              "internalType": "uint256",
              "name": "a",
              "type": "uint256"
            },
            {
              "internalType": "uint256",
              "name": "b",
              "type": "uint256"
            }
          ],
          "internalType": "struct MockSafeMulticallable.Tuple",
          "name": "tuple",
          "type": "tuple"
        }
      ],
      "stateMutability": "pure",
      "type": "function"
    },
    {
      "inputs": [],
      "name": "revertsWithCustomError",
      "outputs": [],
      "stateMutability": "pure",
      "type": "function"
    },
    {
      "inputs": [],
      "name": "revertsWithNothing",
      "outputs": [],
      "stateMutability": "pure",
      "type": "function"
    },
    {
      "inputs": [
        {
          "internalType": "string",
          "name": "e",
          "type": "string"
        }
      ],
      "name": "revertsWithString",
      "outputs": [],
      "stateMutability": "pure",
      "type": "function"
    }
  ],
  "bytecode": {
    "object": "0x608060405234801561001057600080fd5b506108bf806100206000396000f3fe60806040526004361061007b5760003560e01c8063468e8f311161004e578063468e8f311461014d57806392a49cb11461016f578063ac9650d814610184578063c7f554d8146101a457600080fd5b806304420e96146100805780630fbbaefb146100a957806310d990cb146100c457806325793ff7146100f1575b600080fd5b61009361008e36600461044d565b6101b9565b6040516100a09190610530565b60405180910390f35b3480156100b557600080fd5b506040513381526020016100a0565b3480156100d057600080fd5b506100e46100df3660046105b0565b610329565b6040516100a09190610610565b3480156100fd57600080fd5b5061013261010c36600461062a565b604080518082018252600080825260209182015281518083019092529281529182015290565b604080518251815260209283015192810192909252016100a0565b34801561015957600080fd5b5061016d610168366004610710565b61036b565b005b34801561017b57600080fd5b5061016d600080fd5b34801561019057600080fd5b5061009361019f36600461044d565b61039f565b3480156101b057600080fd5b5061016d61041b565b60608167ffffffffffffffff8111156101d4576101d461064c565b60405190808252806020026020018201604052801561020757816020015b60608152602001906001900390816101f25790505b50905060005b82811015610322576000803086868581811061022b5761022b610790565b905060200281019061023d91906107bf565b60405161024b92919061082b565b600060405180830381855af49150503d8060008114610286576040519150601f19603f3d011682016040523d82523d6000602084013e61028b565b606091505b5091509150816102fa576044815110156102a457600080fd5b600481019050808060200190518101906102be919061083b565b6040517f08c379a00000000000000000000000000000000000000000000000000000000081526004016102f19190610610565b60405180910390fd5b8084848151811061030d5761030d610790565b6020908102919091010152505060010161020d565b5092915050565b606082828080601f0160208091040260200160405190810160405280939291908181526020018383808284376000920191909152509293505050505b92915050565b806040517f08c379a00000000000000000000000000000000000000000000000000000000081526004016102f19190610610565b606081156103655750604051818152602001600582901b808483378101805b825185018035602082018337600080823584305af46103e1573d6000803e3d6000fd5b508083526020830192503d81523d6000602083013e3d01603f0167ffffffffffffffe0168183106103be5760408051919052949350505050565b6040517f09caebf300000000000000000000000000000000000000000000000000000000815260040160405180910390fd5b6000806020838503121561046057600080fd5b823567ffffffffffffffff8082111561047857600080fd5b818501915085601f83011261048c57600080fd5b81358181111561049b57600080fd5b8660208260051b85010111156104b057600080fd5b60209290920196919550909350505050565b60005b838110156104dd5781810151838201526020016104c5565b50506000910152565b600081518084526104fe8160208601602086016104c2565b601f017fffffffffffffffffffffffffffffffffffffffffffffffffffffffffffffffe0169290920160200192915050565b6000602080830181845280855180835260408601915060408160051b870101925083870160005b828110156105a3577fffffffffffffffffffffffffffffffffffffffffffffffffffffffffffffffc08886030184526105918583516104e6565b94509285019290850190600101610557565b5092979650505050505050565b600080602083850312156105c357600080fd5b823567ffffffffffffffff808211156105db57600080fd5b818501915085601f8301126105ef57600080fd5b8135818111156105fe57600080fd5b8660208285010111156104b057600080fd5b60208152600061062360208301846104e6565b9392505050565b6000806040838503121561063d57600080fd5b50508035926020909101359150565b7f4e487b7100000000000000000000000000000000000000000000000000000000600052604160045260246000fd5b604051601f82017fffffffffffffffffffffffffffffffffffffffffffffffffffffffffffffffe016810167ffffffffffffffff811182821017156106c2576106c261064c565b604052919050565b600067ffffffffffffffff8211156106e4576106e461064c565b50601f017fffffffffffffffffffffffffffffffffffffffffffffffffffffffffffffffe01660200190565b60006020828403121561072257600080fd5b813567ffffffffffffffff81111561073957600080fd5b8201601f8101841361074a57600080fd5b803561075d610758826106ca565b61067b565b81815285602083850101111561077257600080fd5b81602084016020830137600091810160200191909152949350505050565b7f4e487b7100000000000000000000000000000000000000000000000000000000600052603260045260246000fd5b60008083357fffffffffffffffffffffffffffffffffffffffffffffffffffffffffffffffe18436030181126107f457600080fd5b83018035915067ffffffffffffffff82111561080f57600080fd5b60200191503681900382131561082457600080fd5b9250929050565b8183823760009101908152919050565b60006020828403121561084d57600080fd5b815167ffffffffffffffff81111561086457600080fd5b8201601f8101841361087557600080fd5b8051610883610758826106ca565b81815285602083850101111561089857600080fd5b6108a98260208301602086016104c2565b9594505050505056fea164736f6c6343000811000a",
    "linkReferences": {}
  },
  "methodIdentifiers": {
    "multicall(bytes[])": "ac9650d8",
    "multicallOriginal(bytes[])": "04420e96",
    "returnsSender()": "0fbbaefb",
    "returnsString(string)": "10d990cb",
    "returnsTuple(uint256,uint256)": "25793ff7",
    "revertsWithCustomError()": "c7f554d8",
    "revertsWithNothing()": "92a49cb1",
    "revertsWithString(string)": "468e8f31"
  },
  "id": 66
}