{
  "abi": [
    {
      "inputs": [],
      "stateMutability": "nonpayable",
      "type": "constructor"
    },
    {
      "inputs": [],
      "name": "NewOwnerIsZeroAddress",
      "type": "error"
    },
    {
      "inputs": [],
      "name": "NoHandoverRequest",
      "type": "error"
    },
    {
      "inputs": [],
      "name": "Unauthorized",
      "type": "error"
    },
    {
      "anonymous": false,
      "inputs": [
        {
          "indexed": true,
          "internalType": "address",
          "name": "pendingOwner",
          "type": "address"
        }
      ],
      "name": "OwnershipHandoverCanceled",
      "type": "event"
    },
    {
      "anonymous": false,
      "inputs": [
        {
          "indexed": true,
          "internalType": "address",
          "name": "pendingOwner",
          "type": "address"
        }
      ],
      "name": "OwnershipHandoverRequested",
      "type": "event"
    },
    {
      "anonymous": false,
      "inputs": [
        {
          "indexed": true,
          "internalType": "address",
          "name": "oldOwner",
          "type": "address"
        },
        {
          "indexed": true,
          "internalType": "address",
          "name": "newOwner",
          "type": "address"
        }
      ],
      "name": "OwnershipTransferred",
      "type": "event"
    },
    {
      "anonymous": false,
      "inputs": [
        {
          "indexed": true,
          "internalType": "address",
          "name": "user",
          "type": "address"
        },
        {
          "indexed": true,
          "internalType": "uint256",
          "name": "roles",
          "type": "uint256"
        }
      ],
      "name": "RolesUpdated",
      "type": "event"
    },
    {
      "inputs": [],
      "name": "cancelOwnershipHandover",
      "outputs": [],
      "stateMutability": "nonpayable",
      "type": "function"
    },
    {
      "inputs": [
        {
          "internalType": "address",
          "name": "pendingOwner",
          "type": "address"
        }
      ],
      "name": "completeOwnershipHandover",
      "outputs": [],
      "stateMutability": "nonpayable",
      "type": "function"
    },
    {
      "inputs": [],
      "name": "flag",
      "outputs": [
        {
          "internalType": "bool",
          "name": "",
          "type": "bool"
        }
      ],
      "stateMutability": "view",
      "type": "function"
    },
    {
      "inputs": [
        {
          "internalType": "address",
          "name": "user",
          "type": "address"
        },
        {
          "internalType": "uint256",
          "name": "roles",
          "type": "uint256"
        }
      ],
      "name": "grantRoles",
      "outputs": [],
      "stateMutability": "nonpayable",
      "type": "function"
    },
    {
      "inputs": [
        {
          "internalType": "address",
          "name": "user",
          "type": "address"
        },
        {
          "internalType": "uint256",
          "name": "roles",
          "type": "uint256"
        }
      ],
      "name": "grantRolesDirect",
      "outputs": [],
      "stateMutability": "nonpayable",
      "type": "function"
    },
    {
      "inputs": [
        {
          "internalType": "address",
          "name": "user",
          "type": "address"
        },
        {
          "internalType": "uint256",
          "name": "roles",
          "type": "uint256"
        }
      ],
      "name": "hasAllRoles",
      "outputs": [
        {
          "internalType": "bool",
          "name": "result",
          "type": "bool"
        }
      ],
      "stateMutability": "view",
      "type": "function"
    },
    {
      "inputs": [
        {
          "internalType": "address",
          "name": "user",
          "type": "address"
        },
        {
          "internalType": "uint256",
          "name": "roles",
          "type": "uint256"
        }
      ],
      "name": "hasAnyRole",
      "outputs": [
        {
          "internalType": "bool",
          "name": "result",
          "type": "bool"
        }
      ],
      "stateMutability": "view",
      "type": "function"
    },
    {
      "inputs": [
        {
          "internalType": "address",
          "name": "newOwner",
          "type": "address"
        }
      ],
      "name": "initializeOwnerDirect",
      "outputs": [],
      "stateMutability": "nonpayable",
      "type": "function"
    },
    {
      "inputs": [
        {
          "internalType": "uint256",
          "name": "roles",
          "type": "uint256"
        }
      ],
      "name": "ordinalsFromRoles",
      "outputs": [
        {
          "internalType": "uint8[]",
          "name": "ordinals",
          "type": "uint8[]"
        }
      ],
      "stateMutability": "pure",
      "type": "function"
    },
    {
      "inputs": [],
      "name": "owner",
      "outputs": [
        {
          "internalType": "address",
          "name": "result",
          "type": "address"
        }
      ],
      "stateMutability": "view",
      "type": "function"
    },
    {
      "inputs": [
        {
          "internalType": "address",
          "name": "pendingOwner",
          "type": "address"
        }
      ],
      "name": "ownershipHandoverExpiresAt",
      "outputs": [
        {
          "internalType": "uint256",
          "name": "result",
          "type": "uint256"
        }
      ],
      "stateMutability": "view",
      "type": "function"
    },
    {
      "inputs": [],
      "name": "ownershipHandoverValidFor",
      "outputs": [
        {
          "internalType": "uint64",
          "name": "result",
          "type": "uint64"
        }
      ],
      "stateMutability": "view",
      "type": "function"
    },
    {
      "inputs": [
        {
          "internalType": "address",
          "name": "user",
          "type": "address"
        },
        {
          "internalType": "uint256",
          "name": "roles",
          "type": "uint256"
        }
      ],
      "name": "removeRolesDirect",
      "outputs": [],
      "stateMutability": "nonpayable",
      "type": "function"
    },
    {
      "inputs": [],
      "name": "renounceOwnership",
      "outputs": [],
      "stateMutability": "nonpayable",
      "type": "function"
    },
    {
      "inputs": [
        {
          "internalType": "uint256",
          "name": "roles",
          "type": "uint256"
        }
      ],
      "name": "renounceRoles",
      "outputs": [],
      "stateMutability": "nonpayable",
      "type": "function"
    },
    {
      "inputs": [],
      "name": "requestOwnershipHandover",
      "outputs": [],
      "stateMutability": "nonpayable",
      "type": "function"
    },
    {
      "inputs": [
        {
          "internalType": "address",
          "name": "user",
          "type": "address"
        },
        {
          "internalType": "uint256",
          "name": "roles",
          "type": "uint256"
        }
      ],
      "name": "revokeRoles",
      "outputs": [],
      "stateMutability": "nonpayable",
      "type": "function"
    },
    {
      "inputs": [
        {
          "internalType": "uint8[]",
          "name": "ordinals",
          "type": "uint8[]"
        }
      ],
      "name": "rolesFromOrdinals",
      "outputs": [
        {
          "internalType": "uint256",
          "name": "roles",
          "type": "uint256"
        }
      ],
      "stateMutability": "pure",
      "type": "function"
    },
    {
      "inputs": [
        {
          "internalType": "address",
          "name": "user",
          "type": "address"
        }
      ],
      "name": "rolesOf",
      "outputs": [
        {
          "internalType": "uint256",
          "name": "result",
          "type": "uint256"
        }
      ],
      "stateMutability": "view",
      "type": "function"
    },
    {
      "inputs": [
        {
          "internalType": "address",
          "name": "newOwner",
          "type": "address"
        }
      ],
      "name": "setOwnerDirect",
      "outputs": [],
      "stateMutability": "nonpayable",
      "type": "function"
    },
    {
      "inputs": [
        {
          "internalType": "address",
          "name": "newOwner",
          "type": "address"
        }
      ],
      "name": "transferOwnership",
      "outputs": [],
      "stateMutability": "nonpayable",
      "type": "function"
    },
    {
      "inputs": [],
      "name": "updateFlagWithOnlyOwner",
      "outputs": [],
      "stateMutability": "nonpayable",
      "type": "function"
    },
    {
      "inputs": [
        {
          "internalType": "uint256",
          "name": "roles",
          "type": "uint256"
        }
      ],
      "name": "updateFlagWithOnlyOwnerOrRoles",
      "outputs": [],
      "stateMutability": "nonpayable",
      "type": "function"
    },
    {
      "inputs": [
        {
          "internalType": "uint256",
          "name": "roles",
          "type": "uint256"
        }
      ],
      "name": "updateFlagWithOnlyRoles",
      "outputs": [],
      "stateMutability": "nonpayable",
      "type": "function"
    },
    {
      "inputs": [
        {
          "internalType": "uint256",
          "name": "roles",
          "type": "uint256"
        }
      ],
      "name": "updateFlagWithOnlyRolesOrOwner",
      "outputs": [],
      "stateMutability": "nonpayable",
      "type": "function"
    }
  ],
  "bytecode": {
    "object": "0x608060405234801561001057600080fd5b5061001a336100e0565b6040805160008035821780825233176020908152838220920190925260a081901b918290526001600160601b031615158061008b5760405162461bcd60e51b815260206004820152600c60248201526b14d95d1d5c0819985a5b195960a21b60448201526064015b60405180910390fd5b600260006100988261011c565b905080156100d75760405162461bcd60e51b815260206004820152600c60248201526b14d95d1d5c0819985a5b195960a21b6044820152606401610082565b50505050610130565b6001600160a01b0316638b78c6d8198190558060007f8be0079c531659141344cd1fd0a4f28419497f9722a3daafe3b4186f6b6457e08180a350565b80600281108061012a579015905b50919050565b610ebf8061013f6000396000f3fe608060405234801561001057600080fd5b50600436106101a35760003560e01c8063715018a6116100ee578063a5bdb86b11610097578063eb2c793e11610071578063eb2c793e1461039d578063f04e283e146103b0578063f2fde38b146103c3578063fee81cf4146103d657600080fd5b8063a5bdb86b14610332578063b5dc55cc14610345578063d7533f021461035857600080fd5b8063890eba68116100c8578063890eba68146102cb5780638da5cb5b146102d8578063a14dc6bf1461031f57600080fd5b8063715018a6146102905780637359e41f1461029857806380ee34cc146102b857600080fd5b806325a79bd611610150578063514e62fc1161012a578063514e62fc1461026257806354d1f13d146102755780636108c2d21461027d57600080fd5b806325a79bd6146102295780632de948071461023c5780634a4ee7b11461024f57600080fd5b80631c10893f116101815780631c10893f146101eb5780631cd64df4146101fe578063256929621461022157600080fd5b80630db7b832146101a857806313a661ed146101b2578063183a4f6e146101d8575b600080fd5b6101b06103e9565b005b6101c56101c0366004610d06565b61044c565b6040519081526020015b60405180910390f35b6101b06101e6366004610de9565b61047f565b6101b06101f9366004610e26565b61048c565b61021161020c366004610e26565b6104bf565b60405190151581526020016101cf565b6101b0610507565b6101b0610237366004610e26565b610577565b6101c561024a366004610e50565b6105a6565b6101b061025d366004610e26565b6105ea565b610211610270366004610e26565b610619565b6101b061065a565b6101b061028b366004610e26565b610697565b6101b06106c6565b6102ab6102a6366004610de9565b61074a565b6040516101cf9190610e6b565b6101b06102c6366004610e50565b610792565b6000546102119060ff1681565b7fffffffffffffffffffffffffffffffffffffffffffffffffffffffff748739275460405173ffffffffffffffffffffffffffffffffffffffff90911681526020016101cf565b6101b061032d366004610de9565b6107c0565b6101b0610340366004610e50565b610817565b6101b0610353366004610de9565b610845565b610384604080516000803582178082523317602090815283822092018352911b6202a300179081905290565b60405167ffffffffffffffff90911681526020016101cf565b6101b06103ab366004610de9565b61087a565b6101b06103be366004610e50565b6108ca565b6101b06103d1366004610e50565b6108f8565b6101c56103e4366004610e50565b610926565b7fffffffffffffffffffffffffffffffffffffffffffffffffffffffff7487392754331461041f576382b429006000526004601cfd5b600080547fffffffffffffffffffffffffffffffffffffffffffffffffffffffffffffff00166001179055565b600060208201825160051b81015b80821461047857600160ff8351161b8317925060208201915061045a565b5050919050565b6104893382610964565b50565b6040805160008035821780825233176020908152838220920190925260a01b8317908190526104bb90826109b5565b5050565b604080516000803582178082523317602090815283822092810190935260a09190911b841760601b638b78c6d81781529081205461050090831683146109f5565b9392505050565b604080516000803582178082523317602090815283822092018352911b6202a3001780825267ffffffffffffffff164201905063389a75e13360601b1760005280602060002055337fdbf36a107da19e49527a7176a1babf963b4b0ff8cde35ee35d6cd8f1f9ac7e1d600080a250565b6040805160008035821780825233176020908152838220920190925260a01b8317908190526104bb9082610a09565b6040805160008035821780825233176020908152838220920190925260a01b82178082526105e49060601b638b78c6d8176000908152602090205490565b92915050565b6040805160008035821780825233176020908152838220920190925260a01b8317908190526104bb9082610a55565b604080516000803582178082523317602090815283822092810190935260a09190911b841760601b638b78c6d81781529081205461050090831615156109f5565b63389a75e13360601b176000526000602060002055337ffa7b8eab7da67f412cc9575ed43464468f9bfbae89d1675917346ca6d8fe3c92600080a2565b6040805160008035821780825233176020908152838220920190925260a01b8317908190526104bb9082610964565b7fffffffffffffffffffffffffffffffffffffffffffffffffffffffff748739275433146106fc576382b429006000526004601cfd5b6000337f8be0079c531659141344cd1fd0a4f28419497f9722a3daafe3b4186f6b6457e0600080a360007fffffffffffffffffffffffffffffffffffffffffffffffffffffffff7487392755565b606060206040510160005b8082526001841660051b820191508360011c9350831561077757600101610755565b5060405191508060405260208201810360051c825250919050565b6040805160008035821780825233176020908152838220920190925260a01b82179081905261048990610a95565b80638b78c6d83360601b1760005280602060002054166107e8576382b429006000526004601cfd5b5050600080547fffffffffffffffffffffffffffffffffffffffffffffffffffffffffffffff00166001179055565b6040805160008035821780825233176020908152838220920190925260a01b82179081905261048990610af9565b80638b78c6d8195433146107e857638b78c6d83360601b1760005280602060002054166107e8576382b429006000526004601cfd5b80638b78c6d83360601b1760005280602060002054166107e8577fffffffffffffffffffffffffffffffffffffffffffffffffffffffff748739275433146107e8576382b429006000526004601cfd5b6040805160008035821780825233176020908152838220920190925260a01b82179081905261048990610b5f565b6040805160008035821780825233176020908152838220920190925260a01b82179081905261048990610c17565b6040805160008035821780825233176020908152838220920190925260a01b82178082526105e49060601b63389a75e1176000908152602090205490565b638b78c6d88260601b176000526020600020805482811681189050808255808460601b60601c7f715ad5ce61fc9595c7b415289d59cf203f23a94fa06f04af7e489a0a76e1fe26600080a350505050565b7fffffffffffffffffffffffffffffffffffffffffffffffffffffffff748739275433146109eb576382b429006000526004601cfd5b6104bb8282610a09565b806002811080610a03579015905b50919050565b638b78c6d88260601b17600052602060002081815417808255808460601b60601c7f715ad5ce61fc9595c7b415289d59cf203f23a94fa06f04af7e489a0a76e1fe26600080a350505050565b7fffffffffffffffffffffffffffffffffffffffffffffffffffffffff74873927543314610a8b576382b429006000526004601cfd5b6104bb8282610964565b73ffffffffffffffffffffffffffffffffffffffff167fffffffffffffffffffffffffffffffffffffffffffffffffffffffff748739278190558060007f8be0079c531659141344cd1fd0a4f28419497f9722a3daafe3b4186f6b6457e08180a350565b7fffffffffffffffffffffffffffffffffffffffffffffffffffffffff74873927805473ffffffffffffffffffffffffffffffffffffffff9092169182907f8be0079c531659141344cd1fd0a4f28419497f9722a3daafe3b4186f6b6457e0600080a355565b7fffffffffffffffffffffffffffffffffffffffffffffffffffffffff74873927543314610b95576382b429006000526004601cfd5b8060601b60601c905063389a75e18160601b1760005260206000208054421115610bc757636f5e88186000526004601cfd5b600081555080337f8be0079c531659141344cd1fd0a4f28419497f9722a3daafe3b4186f6b6457e0600080a37fffffffffffffffffffffffffffffffffffffffffffffffffffffffff7487392755565b7fffffffffffffffffffffffffffffffffffffffffffffffffffffffff74873927543314610c4d576382b429006000526004601cfd5b73ffffffffffffffffffffffffffffffffffffffff1680610c7657637448fbae6000526004601cfd5b80337f8be0079c531659141344cd1fd0a4f28419497f9722a3daafe3b4186f6b6457e0600080a37fffffffffffffffffffffffffffffffffffffffffffffffffffffffff7487392755565b7f4e487b7100000000000000000000000000000000000000000000000000000000600052604160045260246000fd5b803560ff81168114610d0157600080fd5b919050565b60006020808385031215610d1957600080fd5b823567ffffffffffffffff80821115610d3157600080fd5b818501915085601f830112610d4557600080fd5b813581811115610d5757610d57610cc1565b8060051b6040517fffffffffffffffffffffffffffffffffffffffffffffffffffffffffffffffe0603f83011681018181108582111715610d9a57610d9a610cc1565b604052918252848201925083810185019188831115610db857600080fd5b938501935b82851015610ddd57610dce85610cf0565b84529385019392850192610dbd565b98975050505050505050565b600060208284031215610dfb57600080fd5b5035919050565b803573ffffffffffffffffffffffffffffffffffffffff81168114610d0157600080fd5b60008060408385031215610e3957600080fd5b610e4283610e02565b946020939093013593505050565b600060208284031215610e6257600080fd5b61050082610e02565b6020808252825182820181905260009190848201906040850190845b81811015610ea657835160ff1683529284019291840191600101610e87565b5090969550505050505056fea164736f6c6343000811000a",
    "linkReferences": {}
  },
  "methodIdentifiers": {
    "cancelOwnershipHandover()": "54d1f13d",
    "completeOwnershipHandover(address)": "f04e283e",
    "flag()": "890eba68",
    "grantRoles(address,uint256)": "1c10893f",
    "grantRolesDirect(address,uint256)": "25a79bd6",
    "hasAllRoles(address,uint256)": "1cd64df4",
    "hasAnyRole(address,uint256)": "514e62fc",
    "initializeOwnerDirect(address)": "80ee34cc",
    "ordinalsFromRoles(uint256)": "7359e41f",
    "owner()": "8da5cb5b",
    "ownershipHandoverExpiresAt(address)": "fee81cf4",
    "ownershipHandoverValidFor()": "d7533f02",
    "removeRolesDirect(address,uint256)": "6108c2d2",
    "renounceOwnership()": "715018a6",
    "renounceRoles(uint256)": "183a4f6e",
    "requestOwnershipHandover()": "25692962",
    "revokeRoles(address,uint256)": "4a4ee7b1",
    "rolesFromOrdinals(uint8[])": "13a661ed",
    "rolesOf(address)": "2de94807",
    "setOwnerDirect(address)": "a5bdb86b",
    "transferOwnership(address)": "f2fde38b",
    "updateFlagWithOnlyOwner()": "0db7b832",
    "updateFlagWithOnlyOwnerOrRoles(uint256)": "b5dc55cc",
    "updateFlagWithOnlyRoles(uint256)": "a14dc6bf",
    "updateFlagWithOnlyRolesOrOwner(uint256)": "eb2c793e"
  },
  "id": 64
}