{
  "abi": [
    {
      "inputs": [],
      "stateMutability": "nonpayable",
      "type": "constructor"
    },
    {
      "inputs": [],
      "name": "NewOwnerIsZeroAddress",
      "type": "error"
    },
    {
      "inputs": [],
      "name": "Unauthorized",
      "type": "error"
    },
    {
      "anonymous": false,
      "inputs": [],
      "name": "OwnershipHandoverCanceled",
      "type": "event"
    },
    {
      "anonymous": false,
      "inputs": [
        {
          "indexed": true,
          "internalType": "address",
          "name": "newOwner",
          "type": "address"
        }
      ],
      "name": "OwnershipHandoverProposed",
      "type": "event"
    },
    {
      "anonymous": false,
      "inputs": [
        {
          "indexed": true,
          "internalType": "address",
          "name": "oldOwner",
          "type": "address"
        },
        {
          "indexed": true,
          "internalType": "address",
          "name": "newOwner",
          "type": "address"
        }
      ],
      "name": "OwnershipTransferred",
      "type": "event"
    },
    {
      "anonymous": false,
      "inputs": [
        {
          "indexed": true,
          "internalType": "address",
          "name": "user",
          "type": "address"
        },
        {
          "indexed": true,
          "internalType": "uint256",
          "name": "roles",
          "type": "uint256"
        }
      ],
      "name": "RolesUpdated",
      "type": "event"
    },
    {
      "inputs": [],
      "name": "acceptOwnershipHandover",
      "outputs": [],
      "stateMutability": "nonpayable",
      "type": "function"
    },
    {
      "inputs": [],
      "name": "cancelOwnershipHandover",
      "outputs": [],
      "stateMutability": "nonpayable",
      "type": "function"
    },
    {
      "inputs": [],
      "name": "flag",
      "outputs": [
        {
          "internalType": "bool",
          "name": "",
          "type": "bool"
        }
      ],
      "stateMutability": "view",
      "type": "function"
    },
    {
      "inputs": [
        {
          "internalType": "address",
          "name": "user",
          "type": "address"
        },
        {
          "internalType": "uint256",
          "name": "roles",
          "type": "uint256"
        }
      ],
      "name": "grantRoles",
      "outputs": [],
      "stateMutability": "nonpayable",
      "type": "function"
    },
    {
      "inputs": [
        {
          "internalType": "address",
          "name": "user",
          "type": "address"
        },
        {
          "internalType": "uint256",
          "name": "brutalizer",
          "type": "uint256"
        },
        {
          "internalType": "uint256",
          "name": "roles",
          "type": "uint256"
        }
      ],
      "name": "grantRoles",
      "outputs": [],
      "stateMutability": "nonpayable",
      "type": "function"
    },
    {
      "inputs": [
        {
          "internalType": "address",
          "name": "user",
          "type": "address"
        },
        {
          "internalType": "uint256",
          "name": "roles",
          "type": "uint256"
        }
      ],
      "name": "hasAllRoles",
      "outputs": [
        {
          "internalType": "bool",
          "name": "result",
          "type": "bool"
        }
      ],
      "stateMutability": "view",
      "type": "function"
    },
    {
      "inputs": [
        {
          "internalType": "address",
          "name": "user",
          "type": "address"
        },
        {
          "internalType": "uint256",
          "name": "roles",
          "type": "uint256"
        }
      ],
      "name": "hasAnyRole",
      "outputs": [
        {
          "internalType": "bool",
          "name": "result",
          "type": "bool"
        }
      ],
      "stateMutability": "view",
      "type": "function"
    },
    {
      "inputs": [
        {
          "internalType": "address",
          "name": "user",
          "type": "address"
        },
        {
          "internalType": "uint256",
          "name": "roles",
          "type": "uint256"
        }
      ],
      "name": "hasAnyRoleWithCheck",
      "outputs": [
        {
          "internalType": "bool",
          "name": "result",
          "type": "bool"
        }
      ],
      "stateMutability": "view",
      "type": "function"
    },
    {
      "inputs": [
        {
          "internalType": "address",
          "name": "newOwner",
          "type": "address"
        },
        {
          "internalType": "uint256",
          "name": "brutalizer",
          "type": "uint256"
        }
      ],
      "name": "initializeOwnerDirect",
      "outputs": [],
      "stateMutability": "nonpayable",
      "type": "function"
    },
    {
      "inputs": [
        {
          "internalType": "uint256",
          "name": "roles",
          "type": "uint256"
        }
      ],
      "name": "ordinalsFromRoles",
      "outputs": [
        {
          "internalType": "uint8[]",
          "name": "ordinals",
          "type": "uint8[]"
        }
      ],
      "stateMutability": "pure",
      "type": "function"
    },
    {
      "inputs": [],
      "name": "owner",
      "outputs": [
        {
          "internalType": "address",
          "name": "result",
          "type": "address"
        }
      ],
      "stateMutability": "view",
      "type": "function"
    },
    {
      "inputs": [],
      "name": "ownershipHandoverReceiver",
      "outputs": [
        {
          "internalType": "address",
          "name": "result",
          "type": "address"
        }
      ],
      "stateMutability": "view",
      "type": "function"
    },
    {
      "inputs": [
        {
          "internalType": "address",
          "name": "newOwner",
          "type": "address"
        }
      ],
      "name": "proposeOwnershipHandover",
      "outputs": [],
      "stateMutability": "nonpayable",
      "type": "function"
    },
    {
      "inputs": [],
      "name": "renounceOwnership",
      "outputs": [],
      "stateMutability": "nonpayable",
      "type": "function"
    },
    {
      "inputs": [
        {
          "internalType": "uint256",
          "name": "roles",
          "type": "uint256"
        }
      ],
      "name": "renounceRoles",
      "outputs": [],
      "stateMutability": "nonpayable",
      "type": "function"
    },
    {
      "inputs": [
        {
          "internalType": "address",
          "name": "user",
          "type": "address"
        },
        {
          "internalType": "uint256",
          "name": "roles",
          "type": "uint256"
        }
      ],
      "name": "revokeRoles",
      "outputs": [],
      "stateMutability": "nonpayable",
      "type": "function"
    },
    {
      "inputs": [
        {
          "internalType": "address",
          "name": "user",
          "type": "address"
        },
        {
          "internalType": "uint256",
          "name": "brutalizer",
          "type": "uint256"
        },
        {
          "internalType": "uint256",
          "name": "roles",
          "type": "uint256"
        }
      ],
      "name": "revokeRoles",
      "outputs": [],
      "stateMutability": "nonpayable",
      "type": "function"
    },
    {
      "inputs": [
        {
          "internalType": "uint8[]",
          "name": "ordinals",
          "type": "uint8[]"
        }
      ],
      "name": "rolesFromOrdinals",
      "outputs": [
        {
          "internalType": "uint256",
          "name": "roles",
          "type": "uint256"
        }
      ],
      "stateMutability": "pure",
      "type": "function"
    },
    {
      "inputs": [
        {
          "internalType": "address",
          "name": "user",
          "type": "address"
        }
      ],
      "name": "rolesOf",
      "outputs": [
        {
          "internalType": "uint256",
          "name": "roles",
          "type": "uint256"
        }
      ],
      "stateMutability": "view",
      "type": "function"
    },
    {
      "inputs": [
        {
          "internalType": "address",
          "name": "newOwner",
          "type": "address"
        },
        {
          "internalType": "uint256",
          "name": "brutalizer",
          "type": "uint256"
        }
      ],
      "name": "setOwnerDirect",
      "outputs": [],
      "stateMutability": "nonpayable",
      "type": "function"
    },
    {
      "inputs": [
        {
          "internalType": "address",
          "name": "newOwner",
          "type": "address"
        }
      ],
      "name": "transferOwnership",
      "outputs": [],
      "stateMutability": "nonpayable",
      "type": "function"
    },
    {
      "inputs": [],
      "name": "updateFlagWithOnlyOwner",
      "outputs": [],
      "stateMutability": "nonpayable",
      "type": "function"
    },
    {
      "inputs": [
        {
          "internalType": "uint256",
          "name": "roles",
          "type": "uint256"
        }
      ],
      "name": "updateFlagWithOnlyOwnerOrRoles",
      "outputs": [],
      "stateMutability": "nonpayable",
      "type": "function"
    },
    {
      "inputs": [
        {
          "internalType": "uint256",
          "name": "roles",
          "type": "uint256"
        }
      ],
      "name": "updateFlagWithOnlyRoles",
      "outputs": [],
      "stateMutability": "nonpayable",
      "type": "function"
    },
    {
      "inputs": [
        {
          "internalType": "uint256",
          "name": "roles",
          "type": "uint256"
        }
      ],
      "name": "updateFlagWithOnlyRolesOrOwner",
      "outputs": [],
      "stateMutability": "nonpayable",
      "type": "function"
    }
  ],
  "bytecode": {
    "object": "0x608060405234801561001057600080fd5b5061001a3361001f565b61005b565b6001600160a01b0316638b78c6d8198190558060007f8be0079c531659141344cd1fd0a4f28419497f9722a3daafe3b4186f6b6457e08180a350565b610d558061006a6000396000f3fe608060405234801561001057600080fd5b50600436106101a35760003560e01c80636610ec24116100ee578063a14dc6bf11610097578063dbdde68911610071578063dbdde689146103bf578063e72a48df146103d2578063eb2c793e146103e5578063f2fde38b146103f857600080fd5b8063a14dc6bf14610386578063b082c1b214610399578063b5dc55cc146103ac57600080fd5b806374102217116100c8578063741022171461033f578063890eba68146103525780638da5cb5b1461035f57600080fd5b80636610ec2414610304578063715018a6146103175780637359e41f1461031f57600080fd5b80631cd64df411610150578063514e62fc1161012a578063514e62fc1461028a57806351b3cf5e146102b457806354d1f13d146102fc57600080fd5b80631cd64df4146102195780632de94807146102535780634a4ee7b11461027757600080fd5b806313a661ed1161018157806313a661ed146101cd578063183a4f6e146101f35780631c10893f1461020657600080fd5b806306c52857146101a85780630db7b832146101b2578063122a3c11146101ba575b600080fd5b6101b061040b565b005b6101b0610497565b6101b06101c8366004610b46565b6104fa565b6101e06101db366004610bb0565b61050f565b6040519081526020015b60405180910390f35b6101b0610201366004610c93565b610542565b6101b0610214366004610b46565b61054f565b610243610227366004610b46565b60609190911b638b78c6d8176000908152602090205481161490565b60405190151581526020016101ea565b6101e0610261366004610cac565b60601b638b78c6d8176000908152602090205490565b6101b0610285366004610b46565b61058f565b610243610298366004610b46565b60609190911b638b78c6d8176000908152602090205416151590565b7fffffffffffffffffffffffffffffffffffffffffffffffffffffffff74873928545b60405173ffffffffffffffffffffffffffffffffffffffff90911681526020016101ea565b6101b06105cf565b610243610312366004610b46565b610651565b6101b061067e565b61033261032d366004610c93565b610702565b6040516101ea9190610cce565b6101b061034d366004610b46565b61074a565b6000546102439060ff1681565b7fffffffffffffffffffffffffffffffffffffffffffffffffffffffff74873927546102d7565b6101b0610394366004610c93565b61075b565b6101b06103a7366004610d15565b6107b2565b6101b06103ba366004610c93565b6107c9565b6101b06103cd366004610d15565b6107fe565b6101b06103e0366004610cac565b610810565b6101b06103f3366004610c93565b6108bc565b6101b0610406366004610cac565b61090c565b7fffffffffffffffffffffffffffffffffffffffffffffffffffffffff74873928547fffffffffffffffffffffffffffffffffffffffffffffffffffffffff74873927903314610463576382b429006000526004601cfd5b600060018201553381547f8be0079c531659141344cd1fd0a4f28419497f9722a3daafe3b4186f6b6457e0600080a3339055565b7fffffffffffffffffffffffffffffffffffffffffffffffffffffffff748739275433146104cd576382b429006000526004601cfd5b600080547fffffffffffffffffffffffffffffffffffffffffffffffffffffffffffffff00166001179055565b818160a01b17915061050b826109b6565b5050565b600060208201825160051b81015b80821461053b57600160ff8351161b8317925060208201915061051d565b5050919050565b61054c3382610a1a565b50565b7fffffffffffffffffffffffffffffffffffffffffffffffffffffffff74873927543314610585576382b429006000526004601cfd5b61050b8282610a6b565b7fffffffffffffffffffffffffffffffffffffffffffffffffffffffff748739275433146105c5576382b429006000526004601cfd5b61050b8282610a1a565b7fffffffffffffffffffffffffffffffffffffffffffffffffffffffff74873927543314610605576382b429006000526004601cfd5b60007fffffffffffffffffffffffffffffffffffffffffffffffffffffffff748739288190557f8422bba0a447c9e0309f7f8ab02fe9cc65654c78bb03841856db33a0536c524c9080a1565b606082901b638b78c6d81760009081526020902054811615156002811080610677579015905b5092915050565b7fffffffffffffffffffffffffffffffffffffffffffffffffffffffff748739275433146106b4576382b429006000526004601cfd5b6000337f8be0079c531659141344cd1fd0a4f28419497f9722a3daafe3b4186f6b6457e0600080a360007fffffffffffffffffffffffffffffffffffffffffffffffffffffffff7487392755565b606060206040510160005b8082526001841660051b820191508360011c9350831561072f5760010161070d565b5060405191508060405260208201810360051c825250919050565b818160a01b17915061050b82610ab7565b80638b78c6d83360601b176000528060206000205416610783576382b429006000526004601cfd5b5050600080547fffffffffffffffffffffffffffffffffffffffffffffffffffffffffffffff00166001179055565b828260a01b1792506107c4838261058f565b505050565b80638b78c6d81954331461078357638b78c6d83360601b176000528060206000205416610783576382b429006000526004601cfd5b828260a01b1792506107c4838261054f565b7fffffffffffffffffffffffffffffffffffffffffffffffffffffffff74873927543314610846576382b429006000526004601cfd5b73ffffffffffffffffffffffffffffffffffffffff168061086f57637448fbae6000526004601cfd5b7fffffffffffffffffffffffffffffffffffffffffffffffffffffffff74873928819055807fbddead5759d93d1c80803f9e8dcce528b941a7cdbf365abc5ad97e8743460d17600080a250565b80638b78c6d83360601b176000528060206000205416610783577fffffffffffffffffffffffffffffffffffffffffffffffffffffffff74873927543314610783576382b429006000526004601cfd5b7fffffffffffffffffffffffffffffffffffffffffffffffffffffffff74873927543314610942576382b429006000526004601cfd5b73ffffffffffffffffffffffffffffffffffffffff168061096b57637448fbae6000526004601cfd5b80337f8be0079c531659141344cd1fd0a4f28419497f9722a3daafe3b4186f6b6457e0600080a37fffffffffffffffffffffffffffffffffffffffffffffffffffffffff7487392755565b73ffffffffffffffffffffffffffffffffffffffff167fffffffffffffffffffffffffffffffffffffffffffffffffffffffff748739278190558060007f8be0079c531659141344cd1fd0a4f28419497f9722a3daafe3b4186f6b6457e08180a350565b638b78c6d88260601b176000526020600020805482811681189050808255808460601b60601c7f715ad5ce61fc9595c7b415289d59cf203f23a94fa06f04af7e489a0a76e1fe26600080a350505050565b638b78c6d88260601b17600052602060002081815417808255808460601b60601c7f715ad5ce61fc9595c7b415289d59cf203f23a94fa06f04af7e489a0a76e1fe26600080a350505050565b7fffffffffffffffffffffffffffffffffffffffffffffffffffffffff74873927805473ffffffffffffffffffffffffffffffffffffffff9092169182907f8be0079c531659141344cd1fd0a4f28419497f9722a3daafe3b4186f6b6457e0600080a355565b803573ffffffffffffffffffffffffffffffffffffffff81168114610b4157600080fd5b919050565b60008060408385031215610b5957600080fd5b610b6283610b1d565b946020939093013593505050565b7f4e487b7100000000000000000000000000000000000000000000000000000000600052604160045260246000fd5b803560ff81168114610b4157600080fd5b60006020808385031215610bc357600080fd5b823567ffffffffffffffff80821115610bdb57600080fd5b818501915085601f830112610bef57600080fd5b813581811115610c0157610c01610b70565b8060051b6040517fffffffffffffffffffffffffffffffffffffffffffffffffffffffffffffffe0603f83011681018181108582111715610c4457610c44610b70565b604052918252848201925083810185019188831115610c6257600080fd5b938501935b82851015610c8757610c7885610b9f565b84529385019392850192610c67565b98975050505050505050565b600060208284031215610ca557600080fd5b5035919050565b600060208284031215610cbe57600080fd5b610cc782610b1d565b9392505050565b6020808252825182820181905260009190848201906040850190845b81811015610d0957835160ff1683529284019291840191600101610cea565b50909695505050505050565b600080600060608486031215610d2a57600080fd5b610d3384610b1d565b9560208501359550604090940135939250505056fea164736f6c634300080f000a",
    "linkReferences": {}
  },
  "methodIdentifiers": {
    "acceptOwnershipHandover()": "06c52857",
    "cancelOwnershipHandover()": "54d1f13d",
    "flag()": "890eba68",
    "grantRoles(address,uint256)": "1c10893f",
    "grantRoles(address,uint256,uint256)": "dbdde689",
    "hasAllRoles(address,uint256)": "1cd64df4",
    "hasAnyRole(address,uint256)": "514e62fc",
    "hasAnyRoleWithCheck(address,uint256)": "6610ec24",
    "initializeOwnerDirect(address,uint256)": "122a3c11",
    "ordinalsFromRoles(uint256)": "7359e41f",
    "owner()": "8da5cb5b",
    "ownershipHandoverReceiver()": "51b3cf5e",
    "proposeOwnershipHandover(address)": "e72a48df",
    "renounceOwnership()": "715018a6",
    "renounceRoles(uint256)": "183a4f6e",
    "revokeRoles(address,uint256)": "4a4ee7b1",
    "revokeRoles(address,uint256,uint256)": "b082c1b2",
    "rolesFromOrdinals(uint8[])": "13a661ed",
    "rolesOf(address)": "2de94807",
    "setOwnerDirect(address,uint256)": "74102217",
    "transferOwnership(address)": "f2fde38b",
    "updateFlagWithOnlyOwner()": "0db7b832",
    "updateFlagWithOnlyOwnerOrRoles(uint256)": "b5dc55cc",
    "updateFlagWithOnlyRoles(uint256)": "a14dc6bf",
    "updateFlagWithOnlyRolesOrOwner(uint256)": "eb2c793e"
  },
  "id": 57
}